:020000040000FA
:10000000A80400206D0200007102000073020000CD
:100010007502000077020000790200000000000075
:100020000000000000000000000000007B02000053
:100030007D020000000000007F020000810200003D
:10004000830200008302000083020000830200009C
:1000500083020000310900008302000083020000D7
:10006000830200008302000083020000830200007C
:10007000830200008302000083020000830200006C
:10008000830200008302000083020000830200005C
:10009000830200008302000083020000830200004C
:1000A000830200008302000083020000830200003C
:1000B00083020000830200005D0400008302000050
:1000C000830200008302000083020000830200001C
:1000D000830200008302000083020000830200000C
:1000E00083020000830200008302000083020000FC
:1000F00083020000830200008302000083020000EC
:1001000083020000830200008302000083020000DB
:1001100083020000830200008302000083020000CB
:1001200083020000830200008302000083020000BB
:1001300083020000830200008302000083020000AB
:1001400000000000000000000000000000000000AF
:10015000830200008302000083020000830200008B
:10016000000000000000000000000000000000008F
:10017000000000000000000000000000000000007F
:10018000000000000000000000000000000000006F
:10019000000000000000000000000000000000005F
:1001A000000000000000000000000000000000004F
:1001B000830200008302000083020000830200002B
:1001C000830200008302000083020000830200001B
:1001D000830200008302000083020000830200000B
:1001E00083020000830200008302000083020000FB
:1001F00083020000830200008302000083020000EB
:10020000830200008302000083020000000000005F
:1002100083020000830200008302000083020000CA
:1002200083020000830200008302000083020000BA
:1002300083020000830200008302000083020000AA
:10024000830200008302000083020000830200009A
:10025000830200008302000083020000830200008A
:1002600083020000830200008302000000F00AB84D
:10027000FEE7FEE7FEE7FEE7FEE7FEE7FEE7FEE756
:10028000FEE7FEE700F002F800F042F814A696E858
:10029000000CB244B344DA4501D100F039F8BAE8B1
:1002A0000F000FA696E83000A5EB040504EB060747
:1002B000AAEB0704A7F101074FEA15154FEA34141A
:1002C000A4F10104AC4201D300F022F813F0010FB5
:1002D00018BFFB1A43F0010300F001F8DBE71847F1
:1002E000DC070000EC07000070470000002300243A
:1002F00000250026103A28BF78C1FBD8520728BF36
:1003000030C148BF0B6070471FB51FBD10B510BD91
:1003100000F02EF81146FFF7F7FF00F081FB00F028
:100320004CF803B4FFF7F2FF03BC00F04FF80000F5
:1003300072B6704762B67047EFF3108072B67047BE
:1003400080F31088704730BF704702480249014A65
:10035000024B7047A8000020A8040020A80000203D
:100360007047704770470000004870470000002049
:100370007546FFF7F9FFAE4605006946534620F083
:100380000700854618B020B5FFF7DFFFBDE8204025
:100390004FF000064FF000074FF000084FF0000B41
:1003A000AC46ACE8C009ACE8C009ACE8C009ACE8B0
:1003B000C00921F007018D46704710B50446AFF320
:1003C00000802046BDE81040FFF7ABBF0149182070
:1003D000ABBEFEE7260002007047000082B001902D
:1003E00000200090FFE700980199884234D2FFE78F
:1003F00047F20C01C4F20301086820F00100086014
:1004000047F23802C4F203020020106047F22802CB
:10041000C4F2030243F67F60106047F22402C4F284
:10042000030201201060086840F001000860FFE747
:1004300047F21C00C4F203000068C00708B9FFE7D8
:10044000F6E747F22401C4F2030101200860FFE748
:10045000009801300090C6E702B0704745F21C4199
:10046000C4F202011120086045F2FC30C4F202001F
:100470000068C006002813D4FFE740F2A401C2F2CE
:1004800000010868013045F25652C5F2555250FB42
:1004900002F202EBD27202EB4202801A08601BE009
:1004A00045F2FC30C4F202000068C00798B9FFE7CB
:1004B00040F2A401C2F200010868023045F256522F
:1004C000C5F2555250FB02F202EBD27202EB42022D
:1004D000801A0860FFE7FFE740F2A400C2F20000C4
:1004E000006868B9FFE745F2FC31C4F20201086810
:1004F00020F00E000860086840F0020008602BE061
:1005000040F2A400C2F20000006801280DD1FFE70C
:1005100045F2FC31C4F20201086820F00E000860C8
:10052000086840F00400086015E040F2A400C2F240
:100530000000006802280DD1FFE745F2FC31C4F24B
:100540000201086820F00E000860086840F008000A
:100550000860FFE7FFE7FFE77047000085B08DF810
:1005600012000391029203980090009818B1FFE7DF
:10057000029820B9FFE701208DF81300A4E0FFE7FF
:1005800041F20400C4F202000068C00708B1FFE7AE
:10059000F6E79DF81200400041F20001C4F20201AA
:1005A00008600098411C0091007841F20801C4F2F3
:1005B0000201086041F20401C4F202010320086054
:1005C000FFE741F20400C4F202000068C00708B16E
:1005D000FFE7F6E741F20400C4F202000068C0F34E
:1005E00040008DF807009DF8070020B1FFE70120CB
:1005F0008DF8130068E0FFE7029802282ED3FFE78A
:100600000098411C0091007841F20801C4F20201F7
:10061000086041F20401C4F2020101200860FFE712
:1006200041F20400C4F202000068C00708B1FFE70D
:10063000F6E741F20400C4F202000068C0F3400093
:100640008DF807009DF8070020B1FFE701208DF825
:10065000130039E0029801380290CDE70098007845
:1006600041F20801C4F20201086041F20401C4F23F
:10067000020105200860FFE741F20400C4F2020015
:100680000068C00708B1FFE7F6E7FFE741F20400A2
:10069000C4F202000068C00708B1FFE7F6E741F2C4
:1006A0000400C4F202000068C0F340008DF80700A7
:1006B0009DF8070020B1FFE701208DF8130003E04B
:1006C00000208DF81300FFE79DF8130005B0704778
:1006D0004EF20861C4F20F01086840F001000860A2
:1006E0004EF22061C4F20F01086840F00200086079
:1006F000FFE74EF20860C4F20F000068C00708B9B7
:10070000FFE7F6E744F21C51C4F20001086840F02C
:10071000C000086044F20041C4F20001086840F0E3
:10072000C000086044F22041C4F20001086840F0B3
:10073000C000086044F22851C4F20001086820F0AB
:10074000C000086044F20C51C4F20001086840F097
:100750008000086044F22C51C4F200010868332282
:1007600062F31F60086041F22001C4F202010868D0
:1007700040F01000086041F20C01C4F202010720B1
:100780000860704780B582B03020009000F04AF8D1
:1007900001200190FFF722FE009800F043F8019835
:1007A000FFF71CFE202000F03DF8282000F03AF86A
:1007B0000198FFF713FE082000F034F80198FFF7C6
:1007C0000DFE019800F02EF80220FFF707FE06202C
:1007D00000F028F80198FFF701FE0F2000F022F842
:1007E0000198FFF7FBFD02B080BD000080B582B02C
:1007F0008DF807009DF8070000F044F802B080BDB6
:1008000080B582B00190FFE70198007840B1FFE722
:1008100001980078FFF7EAFF019801300190F3E7B3
:1008200002B080BD80B582B08DF807009DF807004A
:1008300000F0F0008DF806009DF8070000018DF82B
:1008400005009DF8060040F00C008DF801009DF8B1
:10085000060040F008008DF802009DF8050040F009
:100860000C008DF803009DF8050040F008008DF89D
:10087000040027200DF101010422FFF76FFE02B0F2
:1008800080BD000080B582B08DF807009DF807009C
:1008900000F0F0008DF806009DF8070000018DF8CB
:1008A00005009DF8060040F00D008DF801009DF850
:1008B000060040F009008DF802009DF8050040F0A8
:1008C0000D008DF803009DF8050040F009008DF83B
:1008D000040027200DF101010422FFF73FFE02B0C2
:1008E00080BD000080B582B08DF807008DF806103D
:1008F0009DF80700012806D1FFE79DF80600C030EB
:100900008DF8050005E09DF8060080308DF80500A3
:10091000FFE79DF80500FFF785FF02B080BD0000EE
:1009200080B500F043F8FFF7D3FEFFF72BFF80BD43
:1009300080B582B04CF23C00C4F200000068C006F2
:10094000002821D5FFE7FFE74CF21800C4F20000B1
:100950000068C006002810D4FFE74CF20000C4F283
:10096000000000688DF807009DF8071040F2600055
:10097000C2F2000000F06EF8E6E74CF24401C4F267
:10098000000110200860FFE74CF23C00C4F20000B8
:1009900000688006002807D5FFE74CF24401C4F246
:1009A000000120200860FFE702B080BD4EF25C61CC
:1009B000C4F20F01086840F002000860FFE74EF241
:1009C0005C60C4F20F0000688007002801D4FFE7D4
:1009D000F5E747F20C01C4F20301086820F00100BA
:1009E000086047F20001C4F203010420086047F2E6
:1009F0000401C4F203010120086047F23802C4F286
:100A000003020021116047F22802C4F2030243F6F8
:100A10007F61116047F22401C4F20301086070474E
:100A200080B582B0002000900190FFF779FF40F67A
:100A3000A420C0F20000FFF7E3FE00990120FFF7B9
:100A400051FF40F6AD20C0F20000FFF7D9FEFFE7EE
:100A5000FEE7000083B001908DF803100198008834
:100A6000013000F03F00ADF80000BDF80000019932
:100A70004988884204D1FFE700208DF80B000DE083
:100A80009DF8030001990A8811440871BDF800001F
:100A90000199088001208DF80B00FFE79DF80B00FD
:100AA00003B07047434543532034343700457269DF
:100AB000632053616E74616E61000000CC0A000017
:0C0AC00000000020A8040000EC02000070
:040000050000026D88
:00000001FF
