:020000040000FA
:10000000B00400206D0200007102000073020000C5
:100010007502000077020000790200000000000075
:100020000000000000000000000000007B02000053
:100030007D020000000000007F020000810200003D
:10004000830200008302000083020000830200009C
:1000500083020000C9100000830200008302000038
:10006000830200008302000083020000830200007C
:10007000830200008302000083020000830200006C
:10008000830200008302000083020000830200005C
:10009000830200008302000083020000830200004C
:1000A000830200008302000083020000830200003C
:1000B0008302000083020000950400008302000018
:1000C000830200008302000083020000830200001C
:1000D000830200008302000083020000830200000C
:1000E00083020000830200008302000083020000FC
:1000F00083020000830200008302000083020000EC
:1001000083020000830200008302000083020000DB
:1001100083020000830200008302000083020000CB
:1001200083020000830200008302000083020000BB
:1001300083020000830200008302000083020000AB
:1001400000000000000000000000000000000000AF
:10015000830200008302000083020000830200008B
:10016000000000000000000000000000000000008F
:10017000000000000000000000000000000000007F
:10018000000000000000000000000000000000006F
:10019000000000000000000000000000000000005F
:1001A000000000000000000000000000000000004F
:1001B000830200008302000083020000830200002B
:1001C000830200008302000083020000830200001B
:1001D000830200008302000083020000830200000B
:1001E00083020000830200008302000083020000FB
:1001F00083020000830200008302000083020000EB
:10020000830200008302000083020000000000005F
:1002100083020000830200008302000083020000CA
:1002200083020000830200008302000083020000BA
:1002300083020000830200008302000083020000AA
:10024000830200008302000083020000830200009A
:10025000830200008302000083020000830200008A
:1002600083020000830200008302000000F00AB84D
:10027000FEE7FEE7FEE7FEE7FEE7FEE7FEE7FEE756
:10028000FEE7FEE700F002F800F050F814A696E84A
:10029000000CB244B344DA4501D100F047F8BAE8A3
:1002A0000F000FA696E83000A5EB040504EB060747
:1002B000AAEB0704A7F101074FEA15154FEA34141A
:1002C000A4F10104AC4201D300F030F813F0010FA7
:1002D00018BFFB1A43F0010300F001F8DBE71847F1
:1002E000A4270000C4270000103A24BF78C878C1B2
:1002F000FAD8520724BF30C830C144BF04680C602C
:1003000070470000704700000023002400250026ED
:10031000103A28BF78C1FBD8520728BF30C148BF68
:100320000B6070471FB51FBD10B510BD00F03CF845
:100330001146FFF7F7FF01F06DF800F05AF803B42B
:10034000FFF7F2FF03BC00F05DF8000072B67047E3
:1003500062B67047EFF3108072B6704780F3108872
:10036000704730BF704702480249014A024B70474C
:10037000B0000020B0040020B0000020704770479B
:10038000704710B500F008F8006810BD10B50446BD
:1003900000F002F8046010BD00487047080000201B
:1003A00000487047080000207546FFF7F9FFAE4689
:1003B00005006946534620F00700854618B020B571
:1003C000FFF7D1FFBDE820404FF000064FF00007D7
:1003D0004FF000084FF0000BAC46ACE8C009ACE8A9
:1003E000C009ACE8C009ACE8C00921F007018D469E
:1003F000704710B50446AFF300802046BDE81040BA
:10040000FFF79DBF01491820ABBEFEE726000200A2
:100410007047000082B0019000200090FFE7009834
:100420000199884234D2FFE747F20C01C4F203017C
:10043000086820F00100086047F23802C4F20302A5
:100440000020106047F22802C4F2030243F67F60E6
:10045000106047F22402C4F2030201201060086811
:1004600040F001000860FFE747F21C00C4F20300FF
:100470000068C00708B9FFE7F6E747F22401C4F2B5
:10048000030101200860FFE7009801300090C6E7F3
:1004900002B0704745F21C41C4F20201112008600D
:1004A00045F2FC30C4F202000068C006002813D4F4
:1004B000FFE740F2AC01C2F200010868013045F2EA
:1004C0005652C5F2555250FB02F202EBD27202EBC9
:1004D0004202801A08601BE045F2FC30C4F20200C0
:1004E0000068C00798B9FFE740F2AC01C2F2000112
:1004F0000868023045F25652C5F2555250FB02F2DE
:1005000002EBD27202EB4202801A0860FFE7FFE7BB
:1005100040F2AC00C2F20000006868B9FFE745F2A3
:10052000FC31C4F20201086820F00E00086008687F
:1005300040F0020008602BE040F2AC00C2F2000084
:10054000006801280DD1FFE745F2FC31C4F2020139
:10055000086820F00E000860086840F00400086099
:1005600015E040F2AC00C2F20000006802280DD194
:10057000FFE745F2FC31C4F20201086820F00E00EA
:100580000860086840F008000860FFE7FFE7FFE741
:10059000704700004EF20861C4F20F01086840F095
:1005A000010008604EF22061C4F20F01086840F0BB
:1005B00002000860FFE74EF20860C4F20F00006816
:1005C000C00708B9FFE7F6E744F21C51C4F2000186
:1005D000086840F0C000086044F20041C4F2000125
:1005E000086840F0C000086044F22041C4F20001F5
:1005F000086840F0C000086044F22851C4F20001CD
:10060000086820F0C000086044F20C51C4F20001F8
:10061000086840F08000086044F22C51C4F20001E8
:100620000868332262F31F60086041F22001C4F2BF
:100630000201086840F01000086041F20C01C4F2A9
:10064000020107200860704782B08DF806008DF81F
:100650000510FFE741F20400C4F202000068C00781
:1006600008B1FFE7F6E79DF80600400041F20001FF
:10067000C4F2020108609DF8050041F20801C4F2CD
:100680000201086041F20401C4F202010320086083
:10069000FFE741F20400C4F202000068C00708B19D
:1006A000FFE7F6E741F20400C4F202000068C0F37D
:1006B00040008DF804009DF8040020B1FFE7002001
:1006C0008DF8070035E09DF806004000013041F24A
:1006D0000001C4F20201086041F20401C4F2020107
:1006E00007200860FFE741F20400C4F2020000683E
:1006F000C00708B1FFE7F6E741F20400C4F20200C8
:100700000068C0F340008DF804009DF8040020B19B
:10071000FFE700208DF807000BE041F20800C4F26B
:10072000020000688DF803009DF803008DF80700B3
:10073000FFE79DF8070002B07047000082B08DF817
:1007400006008DF805108DF80420FFE741F2040043
:10075000C4F202000068C00708B1FFE7F6E79DF8A1
:100760000600400041F20001C4F2020108609DF859
:10077000050041F20801C4F20201086041F20401DF
:10078000C4F2020103200860FFE741F20400C4F252
:1007900002000068C00708B1FFE7F6E79DF8040013
:1007A00041F20801C4F20201086041F20401C4F2FE
:1007B000020105200860FFE741F20400C4F20200D4
:1007C0000068C00708B1FFE7F6E7FFE741F2040061
:1007D000C4F202000068C00708B1FFE7F6E741F283
:1007E0000400C4F202000068C0F340008DF803006A
:1007F0009DF8030020B1FFE701208DF8070003E01A
:1008000000208DF80700FFE79DF8070002B0704751
:1008100080B584B00390682000903B21FFF714FF5F
:10082000014600988DF80A103C21FFF70DFF0146A4
:1008300000988DF80B103D21FFF706FF0146009848
:100840008DF808103E21FFF7FFFE014600988DF855
:1008500009103F21FFF7F8FE014600988DF80610B9
:100860004021FFF7F1FE8DF807009DF80A109DF872
:100870000B0040EA0120039908809DF808109DF8BC
:10088000090040EA0120039948809DF806109DF870
:10089000070040EA01200399888004B080BD000071
:1008A00080B594B0139012911192139880681090B3
:1008B0001398C0680F90139800690E90109801F07B
:1008C000C3FD029003910F9800900E99084601F025
:1008D00065FE00990190084601F060FE019901F063
:1008E000DFFD01F0B1FD01F029F8024602980B4648
:1008F000039900F055FF42F68762C7F6DE120C92AC
:100900004AF21363C4F24C030D9301F0D9FA01F0DB
:100910003BF8119908600F9801F096FD0690079139
:10092000109804900E99084601F038FE049905903D
:10093000084601F033FE059901F0B2FD01F084FD97
:1009400000F0FCFF024606980B46079900F028FFCE
:100950000C9A0D9B01F0B4FA01F016F81199486059
:10096000109808900F99084601F018FE0899099010
:10097000084601F013FE099901F092FD01F064FDB3
:1009800000F0DCFF0A900B910E9801F05DFD02462D
:100990000A980B460B9900F003FF0C9A0D9B01F08F
:1009A0008FFA00F0F1FF1199886014B080BD00004B
:1009B00080B584B00390682000904321FFF744FE87
:1009C000014600988DF80A104421FFF73DFE0146CC
:1009D00000988DF80B104521FFF736FE0146009870
:1009E0008DF808104621FFF72FFE014600988DF87C
:1009F00009104721FFF728FE014600988DF80610E0
:100A00004821FFF721FE8DF807009DF80A109DF898
:100A10000B0040EA0120039908809DF808109DF81A
:100A2000090040EA0120039948809DF806109DF8CE
:100A3000070040EA01200399888004B080BD0000CF
:100A400080B586B068207521FFF7FEFD8DF8170090
:100A50009DF8170068280DD1FFE742F63D20C0F24F
:100A6000000000F043FC9DF8170000F075FC00F05A
:100A7000D3FA0CE042F65D20C0F2000000F036FC34
:100A80009DF8170000F068FC00F0C6FA24E068202A
:100A900002906B2100918022FFF750FE0A20FFF7A1
:100AA000B9FC0099029800220192FFF747FE0298D4
:100AB00019210722FFF742FE019A02981A21FFF737
:100AC0003DFE019A02981C21FFF738FE019A029818
:100AD0001B21FFF733FEFFE706B080BD80B598B05D
:100AE000179068201C21FFF7AFFD00F018008DF86B
:100AF0005B009DF95B0001461591182800F2CC803F
:100B00001599DFE801F00DC9C9C9C9C9C9C93CC9EE
:100B1000C9C9C9C9C9C96BC9C9C9C9C9C9C99A009B
:100B200017981090B0F9000001F0B2F9002212926B
:100B30000023C4F2D003139301F014F800F024FF53
:100B40001099886017981190B0F9020001F0A0F98F
:100B5000129A139B01F006F800F016FF1199C86075
:100B600017981490B0F9040001F092F9129A139BAF
:100B700000F0F8FF00F008FF149908618CE0179866
:100B80000B90B0F9000001F083F900220D920023D0
:100B9000C4F2C0030E9300F0E5FF00F0F5FE0B99E0
:100BA000886017980C90B0F9020001F071F90D9A65
:100BB0000E9B00F0D7FF00F0E7FE0C99C860179875
:100BC0000F90B0F9040001F063F90D9A0E9B00F04C
:100BD000C9FF00F0D9FE0F9908615DE017980690F3
:100BE000B0F9000001F054F9002208920023C4F289
:100BF000B003099300F0B6FF00F0C6FE06998860C6
:100C000017980790B0F9020001F042F9089A099B81
:100C100000F0A8FF00F0B8FE0799C86017980A9086
:100C2000B0F9040001F034F9089A099B00F09AFF2A
:100C300000F0AAFE0A9908612EE017980190B0F919
:100C4000000001F025F9002203920023C4F2A00362
:100C5000049300F087FF00F097FE019988601798D1
:100C60000290B0F9020001F013F9039A049B00F01E
:100C700079FF00F089FE0299C86017980590B0F9D5
:100C8000040001F005F9039A049B00F06BFF00F0EB
:100C90007BFE05990861FFE718B080BD80B598B06C
:100CA000179068201B21FFF7CFFC00F018008DF88B
:100CB0005B009DF95B0001461591182800F2D28077
:100CC0001599DFE801F00DCFCFCFCFCFCFCF3DCFFC
:100CD000CFCFCFCFCFCF6DCFCFCFCFCFCFCF9E0086
:100CE00017981090B0F9000001F0D2F8002212928B
:100CF00046F20003C4F26003139300F033FF00F0E8
:100D000043FE1099886017981190B0F9020001F025
:100D1000BFF8129A139B00F025FF00F035FE1199E1
:100D2000C86017981490B0F9040001F0B1F8129A55
:100D3000139B00F017FF00F027FE1499086191E063
:100D400017980B90B0F9000001F0A2F800220D9264
:100D500046F20003C4F250030E9300F003FF00F0CC
:100D600013FE0B99886017980C90B0F9020001F0FF
:100D70008FF80D9A0E9B00F0F5FE00F005FE0C9921
:100D8000C86017980F90B0F9040001F081F80D9A2F
:100D90000E9B00F0E7FE00F0F7FD0F99086161E09F
:100DA00017980690B0F9000001F072F84FF0663223
:100DB000089246F26663C4F24003099300F0D2FE43
:100DC00000F0E2FD0699886017980790B0F90200DC
:100DD00001F05EF8089A099B00F0C4FE00F0D4FD13
:100DE0000799C86017980A90B0F9040001F050F80C
:100DF000089A099B00F0B6FE00F0C6FD0A9908614A
:100E000030E017980190B0F9000001F041F84FF080
:100E10006632039246F26663C4F23003049300F034
:100E2000A1FE00F0B1FD0199886017980290B0F919
:100E3000020001F02DF8039A049B00F093FE00F0ED
:100E4000A3FD0299C86017980590B0F9040001F05D
:100E50001FF8039A049B00F085FE00F095FD0599AC
:100E60000861FFE718B080BD80B594B00FA800906E
:100E7000FFF7CEFC0AA80190FFF79AFD0098FFF754
:100E80002DFE0198FFF70AFF0098019907AAFFF7C6
:100E900007FD42F6B010C0F2000000F027FA42F65B
:100EA000C910C0F2000000F021FABDF93C0000F0CA
:100EB00009FA42F61320C0F20000039000F016FA7F
:100EC000BDF93E0000F0FEF942F61820C0F2000025
:100ED000049000F00BFABDF9400000F0F3F942F67F
:100EE000C610C0F20000069000F000FA42F6E810CA
:100EF000C0F2000000F0FAF911980021C4F2C821F4
:100F0000029101F04BFB01F02DFB00F0DBF903989F
:100F100000F0ECF90299129801F040FB01F022FB7D
:100F200000F0D0F9049800F0E1F90299139801F06B
:100F300035FB01F017FB00F0C5F9069800F0D6F973
:100F400042F6D910C0F2000000F0D0F9BDF9280037
:100F500000F0B8F9039800F0C9F9BDF92A0000F0D3
:100F6000B1F9049800F0C2F9BDF92C0000F0AAF91B
:100F7000069800F0BBF942F6FE10C0F2000000F047
:100F8000B5F90C980021C4F22011059101F006FB7F
:100F900001F0E8FA00F096F9039800F0A7F9059936
:100FA0000D9801F0FBFA01F0DDFA00F08BF90498DE
:100FB00000F09CF905990E9801F0F0FA01F0D2FAD0
:100FC00000F080F9069800F091F942F61D20C0F279
:100FD000000000F08BF9079801F0C4FA00F072F9F4
:100FE00042F62E20C0F2000000F080F9089801F0CF
:100FF000B9FA00F067F942F63620C0F2000000F0BE
:1010000075F9099801F0AEFA00F05CF9069800F065
:101010006DF914B080BD000080B50D2000F03AF9E4
:101020000A2000F037F980BD81B04EF27001C4F2A1
:101030000F010091086840F000400860086840F423
:10104000006008604EF26002C4F20F02106820F4E3
:10105000F8601060106800F5A8601060086820F063
:101060007000086008680860086820F40050086094
:10107000086840F0804008600868182262F39C50BD
:101080000860FFE74EF25000C4F20F00006840060F
:10109000002801D4FFE7F5E74EF27001C4F20F011A
:1010A000086820F40060086001B0704780B5FFF761
:1010B000BBFF0021084600F045F8FFF76BFA00F08F
:1010C0006FF9FFF7BDFC80BD80B582B04CF23C00EB
:1010D000C4F200000068C006002821D5FFE7FFE742
:1010E0004CF21800C4F200000068C006002810D4BA
:1010F000FFE74CF20000C4F2000000688DF8070022
:101100009DF8071040F26800C2F2000000F09AF962
:10111000E6E74CF24401C4F2000110200860FFE74A
:101120004CF23C00C4F2000000688006002807D59D
:10113000FFE74CF24401C4F2000120200860FFE701
:1011400002B080BD80B582B08DF807008DF8061022
:101150004EF20411C4F20F01086840F0010008606B
:101160004EF20811C4F20F01086840F00100086057
:1011700040F26800C2F2000000F05AF99DF8070042
:1011800000F0010040F20001C2F2000108704CF2D0
:101190003001C4F20001002008604CF22401C4F2C6
:1011A0000001082008604CF22801C4F200012C2044
:1011B00008604CF22C01C4F20001602008604CF27F
:1011C0004401C4F2000140F2FF7008609DF807007E
:1011D000C00728B9FFE79DF80600C00770B3FFE716
:1011E0004EF20441CEF200010868052262F34F304E
:1011F00008604EF20011CEF20001086840F02000B5
:1012000008609DF80700C00748B1FFE74CF23801BD
:10121000C4F20001086840F010000860FFE79DF884
:101220000600C00748B1FFE74CF23801C4F20001E4
:10123000086840F020000860FFE7FFE74CF230014B
:10124000C4F20001086840F201321043086044F221
:101250002041C4F20001086840F00300086044F235
:101260001C51C4F20001086840F00300086044F219
:101270002C51C4F200010868112262F307000860D3
:1012800044F22851C4F20001086820F0030008600D
:1012900002B080BD81B08DF80300FFE74CF218006A
:1012A000C4F2000000688006002801D5FFE7F5E7DA
:1012B0009DF803004CF20001C4F20001086001B087
:1012C0007047000080B582B001900198B0F1FF3FF7
:1012D00007DCFFE72D20FFF7DDFF0198404201907A
:1012E000FFE7019800F014F802B080BD80B582B02D
:1012F0000190FFE70198007840B1FFE7019800787E
:10130000FFF7C8FF019801300190F3E702B080BDFC
:1013100080B582B0019001980A2816D3FFE70198A2
:101320004CF6CD41CCF6CC410091A0FB0110C00899
:10133000FFF7EEFF00990198A0FB0121C90801EB1E
:101340008101A0EB41000190FFE701983030C0B26D
:10135000FFF7A0FF02B080BD80B582B00190019878
:1013600010280AD3FFE701980009FFF7F5FF01985D
:1013700000F00F00FFF7F0FF10E00198092806D8F1
:10138000FFE701983030C0B2FFF784FF05E0019815
:101390003730C0B2FFF77EFFFFE7FFE702B080BD46
:1013A0004EF25C61C4F20F01086840F00200086070
:1013B000FFE74EF25C60C4F20F000068800700286F
:1013C00001D4FFE7F5E747F20C01C4F20301086816
:1013D00020F00100086047F20001C4F2030104207C
:1013E000086047F20401C4F203010120086047F2DB
:1013F0003802C4F203020021116047F22802C4F24D
:10140000030243F67F61116047F22401C4F2030135
:101410000860704780B582B000200190FFF746FE5B
:10142000FFE7FFF721FD6420FEF7F4FFF9E7000076
:1014300081B000900099002008800099488001B098
:101440007047000083B001908DF803100198008868
:10145000013000F03F00ADF80000BDF80000019938
:101460004988884204D1FFE700208DF80B000DE089
:101470009DF8030001990A8811440871BDF8000025
:101480000199088001208DF80B00FFE79DF80B0003
:1014900003B07047490050EAC12018BF04204A0D2C
:1014A00018BF40F0010040F2FF72B2EB515F08BF7D
:1014B00040F00200012808BF052070472DE9F041E7
:1014C0004F1E00EBC7010446D1E9000115461E4638
:1014D00037F006020DD02A46334600F0F1FC7F1E9D
:1014E00004EBC703D3E9002300F080FA37F00602CB
:1014F000F1D1022F25D0042F13D0062F18BFBDE83D
:10150000F0812A46334600F0DBFCD4E90A2300F0E0
:101510006DFA2A46334600F0D3FCD4E9082300F0E4
:1015200065FA2A46334600F0CBFCD4E9062300F0E6
:101530005DFA2A46334600F0C3FCD4E9042300F0E8
:1015400055FA2A46334600F0BBFCD4E9022300F0EA
:101550004DFA2A46334600F0B3FCD4E90023BDE837
:10156000F04100F043BA012201F08BB900F03EBA1D
:10157000024A0020110701F084B9000001FDFFFFBD
:101580002DE9F84F04460D4621F0004000917349C3
:10159000814211DC7249884201DC06D12CB120461F
:1015A0002946BDE8F84FFFF7DEBF6E48002DCCBFDF
:1015B0006D496E49BDE8F88F6D49814211DD6D4975
:1015C0008142D8BF4FF0FF366DDD20462946FFF738
:1015D00061FF042808BFFFF7CBFF20462946BDE87E
:1015E000F88F6549654F25F00045814233DD644938
:1015F000814219DD002632464FF0804320462946BD
:1016000000F0F4F980468A4601222046294601F07E
:1016100038F900223B4600F029FE4246534600F0CE
:10162000A1FA04460D463EE001260022BA463B469A
:101630002046294600F0DAF980460F46002253463C
:101640002046294600F012FE42463B4600F08AFA48
:1016500004460D4627E04B4981421BDDDFF828A1F7
:101660000226002253462046294600F029FC00228B
:101670003B4600F0BBF980460F4600225346204609
:10168000294600F0F3FD42463B4600F06BFA044663
:101690000D4608E0032622462B4600203B4900F079
:1016A00061FA04460D4622462B461046194600F0C4
:1016B00007FC8B46824602460B4600F001FC0746BB
:1016C0000246334888460B4606217844FFF7F6FE6B
:1016D00052465B4600F0F4FB82462E488B463A4663
:1016E000434605217844FFF7E9FE3A46434600F0B9
:1016F000E7FB02460B46002E504659460CDA00F036
:1017000075F922462B4600F0DBFB01B022462B4642
:10171000BDE8F04F00F0D2BC00F068F922462B463D
:1017200000F0CEFB1C4A7A4402EBC603D3E9002347
:1017300000F09CFD22462B4600F098FD174A7A44A3
:1017400002EBC603D3E9002300F0B8FC009A002A9C
:10175000B8BF81F00041BDE8F88F000000001044E0
:101760000000F07F182D4454FB21F93FFB21F9BF05
:101770000000DC3F0000203E0000F33F0000F03F8F
:101780000000E63F008003400000F83F0000F0BF8B
:10179000AA1200006812000006120000CE1100001C
:1017A0002DE9F04D9446CCF1000423F000464CEABC
:1017B0000404594F46EAD4749A46884621F0004200
:1017C000BC4206D8454240EA050442EAD474BC4211
:1017D00004D9BDE8F04D6246FFF7C8BEAAF14055F6
:1017E000A5F17F6555EA0C040BD0022404EAAA7423
:1017F0004A4DDFF82CE144EAD87452EA000B04D0D9
:101800000CE0BDE8F04DFFF7BBBE002C14BF012C6F
:10181000BDE8F08D022C30D0032C32D056EA0C0BF0
:101820000AD0BE4220D1BA4209D126F0804622F029
:1018300080423346114617E000291ADB25E0DFF825
:10184000E4B0FB44002C04BFDBE90001BDE8F08DEF
:10185000012C02BFDBE9000181F00041BDE8F08D01
:10186000022C0AD0032C0CD0BA4212D1B8F1000FCE
:101870000BDA2A482C49BDE8F08D28462B49BDE8F3
:10188000F08D28467146BDE8F08D24482849BDE812
:10189000F08D921B12153C2AC4BF204F244E10DC41
:1018A000BAF1000FBEBF12F13C0F00273E4608DB25
:1018B000624600F057F921F00041FFF761FE07464C
:1018C0000E4694B1012C08BF86F000460DD0194A8F
:1018D000194B022C3846314615D000F0C7FC2A4679
:1018E000BDE8F04D114B00F0C1BC00221346384654
:1018F000314600F091FA04BF0220FEF747FD38465A
:101900003146BDE8F08D00F0B1FC2A46BDE8F04D4F
:10191000064B00F0D3BB00000000F07F182D4454AC
:10192000FB2109C062110000FB21F9BFFB21094026
:10193000FB21F93F075C143326A6A13C2DE9F041B9
:1019400006460F4600F0C6FB041E0D4618BF0120D8
:10195000284320F00040C0F17F6000F1E040C00F5C
:101960000ED0301C18BF0120384320F00040C0F1D9
:101970007F6000F1E040C00F04BF0120FEF706FDCC
:1019800020462946BDE8F08121F0004201F00043E5
:10199000A2F16052B2F5801F28BFD2F17F6C0BD943
:1019A0005FEA001C43EAC20242EB507018BF704766
:1019B00028BF20F001007047B2F5801FBCBF184659
:1019C00070474FEA410C1CF5001F02D2084600F098
:1019D000ACBE70B500F01EFB00000089FFF7F6BF3B
:1019E0004FF00040A0F580007047000010B591EA6C
:1019F000030F48BF83F0004300F14084841A71EB69
:101A0000030C05D2121943EB0C03001B61EB0C0114
:101A10004FEA1154A4EB135CDFF81CE11EEA430FFC
:101A200018BF9EEA445F00F0748021EA045123EA63
:101A30000E0343F48013DCF1200E32D322FA0CFEA5
:101A400010EB0E0023FA0CFE41EB0E01CCF1200E40
:101A500003FA0EFE10EB0E00CCF1200E51F1000146
:101A6000B1F5801F32D201EB045112FA0EF2BDE83B
:101A7000104058BF7047401C38BF5FEA420218BF91
:101A80007047002814BF20F0010041F100014FEA27
:101A9000410313F5001F38BF7047A1F1C04100F0AA
:101AA00007BB012A43EB0302ACF1200CDCF11F0E53
:101AB00032BF4FF0000E23FA0CF310EB030041EBA2
:101AC0000451B4EB115FD0D0A1EB045101F58011AA
:101AD000490801EB04515FEA30000ED350F10000D9
:101AE00038BF12FA0EFE08D1BDE81040C9E7401C0D
:101AF00038BF5FEA4202CAD1C3E7BDE810404FEAEF
:101B0000410313F5001F38BF7047A1F1C04100F039
:101B1000CFBA9EEA445F08D011EA5E0FBDE81040DC
:101B200004BF01F0004100207047BDE8104070B5CF
:101B300000F070FA64FBBE3E0000E0FF02494FF087
:101B4000000000F06CBE00BF0000F87F491058BFD5
:101B5000C1F140415B1058BFC3F140438B42EFF3EA
:101B6000008070472DE9C04130B4DFF8A4C23CEAE0
:101B7000111418BF3CEA131400F0ED801CEA111494
:101B800081EA030544EAD57418BF1CEA131500F076
:101B9000C880A4EB050404F17F7404F500344FF011
:101BA000004545EAC12145EAC32341EA505143EAD1
:101BB00052534FEAC0204FEAC222994208BF9042D6
:101BC00000F09D804FEA13650FF24416765D4FEAF0
:101BD000134506FB05F7C7F1807706FB07F74FEAC9
:101BE000D737A7FB03687642A7FB06CEC8F5803837
:101BF00038BFA8F1010807FB08E6A6FB028C4FF0EE
:101C0000000EE6FB03CEDCF1000CCEF1004E38BF37
:101C1000AEF1010EA6FB0C584FF00007E6FB0E8755
:101C2000A1FB08C6A0FB07CE16EB0E064FF0000581
:101C300045F10005E1FB076515F1E04E7EBFA4F517
:101C400080345FEA46066D4116F1800745F10005D4
:101C50004FEA172747EA05674FEA15254FEA066658
:101C6000A6F1DE46B6F1805F20D9384605EBC47197
:101C700024F0010C01EB0C11BCF1FE6F02D8F0BC9A
:101C8000BDE8008124425CBF01F5801E9EEAC47F4E
:101C900002D4F0BCBDE80081244200F13980A1F1FA
:101CA000C041F0BCBDE8004100F002BA4FEAD020CC
:101CB00040EA41504FEAD1214FEAD22242EA435250
:101CC0004FEAD323A7FB028607FB036605FB0266E8
:101CD0001EEA0E0F58BFA6EB0056B6EB00564FEAB1
:101CE000520E4EEAC37E18EB0E0E56EB530EBCD5C9
:101CF00018EB02085E417F1C55F10005B5E74FF473
:101D000080154FF000074FF000064FF00008ACE7D9
:101D100001F1C04101F000414FF00000F0BCBDE80E
:101D200000810CEA131511EA0C1F00D00CE013EA35
:101D30000C1F00F026804FF0000081EA030101F043
:101D40000041F0BCBDE80081F0BCBDE8004181EA83
:101D5000030100F0ADB9F0BCBDE8004170B500F082
:101D600059F900BF097EFC3E00F007B84FF00000B3
:101D700081EA030101F00041704781EA030100F0AC
:101D800097B9F0BCBDE8004122494FF00000704710
:101D9000FFFDFBF9F7F5F4F2F0EEEDEBE9E8E6E430
:101DA000E3E1E0DEDDDBDAD8D7D5D4D3D1D0CFCDB7
:101DB000CCCBCAC8C7C6C5C4C2C1C0BFBEBDBCBBF0
:101DC000BAB9B8B7B6B5B4B3B2B1B0AFAEADACABEB
:101DD000AAA9A8A8A7A6A5A4A3A3A2A1A09F9F9EC5
:101DE0009D9C9C9B9A999998979796959594939377
:101DF000929191908F8F8E8E8D8C8C8B8B8A89890E
:101E00008888878786858584848383828281818090
:101E10000000FF070000F87F51EA030C17D41CF5FF
:101E2000801F58BFBCF5801F00F10680994218BF83
:101E3000704708BF9042704707D711F5801F58BF01
:101E400013F5801F19D499427047894270471CF5D9
:101E5000801F08D5BCF5801FF7D58B4218BF70478F
:101E600008BF824270474FF4001C1CEB410F38BF83
:101E70001CEB430F01D28B42704770B500F0CAF8DB
:101E8000922449004FF000514FF08053FFF75EBE9F
:101E900010F0004248BF4042B0FA80F310FA03F15C
:101EA0000AD0C3F11D0303F5806302EB03524FEA2E
:101EB000415002EBD12170474FF000007047000005
:101EC00070B5DFF848C11CEA111E1EBF1CEA1315CD
:101ED0009EEA0C0F95EA0C0F00F06F8081EA030474
:101EE0004EEAD47EAE4421EA4C1123EA4C1341F46D
:101EF000801143F48013AEF17F7EA1FB024CA0FB66
:101F00000365361955EB0C05A1FB034C4CF100039E
:101F1000A0FB021C16EB0C06654153F100030942BD
:101F200018BF46F0010613F4007F0BD14FEA0331CE
:101F30004FEA053041EA155140EA165034036FF07C
:101F400003020AE04FEAC3214FEAC52041EA555196
:101F500040EA5650F4026FF0020202EB2E4201EB0F
:101F6000025585EACE710AD05FEA440C18BF24F00E
:101F7000004450F1000041F1000120EAD47040F229
:101F8000FE7C624500D270BDA84214BF4FF0804471
:101F90004FF04044002E08BF0024BEF1806FA8BF60
:101FA000A1F1C041BDE8704080F2828001F1C041E2
:101FB00001F000414FF0000070470CEA13159EEA53
:101FC0000C0F18BF95EA0C0F06D081EA030E4FF0F4
:101FD00000000EF0004170BD00F01CF88900013EC9
:101FE00000F007B800F009B84FEA430C5FEA5C5C08
:101FF00008D081EA030100F05BB84FEA410C5FEAC8
:102000005C5CF6D102494FF0000070470000FF070A
:102010000000F87F0EF1020E2EF0030E5EF8046B46
:10202000364205D4012A43EB030515F5001F12D8EB
:10203000012841EB010C1CF5001F0CD80ED14FEA12
:10204000D17C0CEB4C0C0CF1020C15F5001F08BFF9
:102050004CEBD37C04E04FF0080C01E04FEAD37C5A
:102060000CEB4C0526FA05F606F00706B6F1040C53
:1020700006D20EEB860CBDE870404CF0010C6047B8
:10208000DFE80CF0090B02024FF00041A1F500213E
:102090004FF0000070BD19461046012851EB0104B5
:1020A00018BFD4F5001484BF002001F0004170BDBA
:1020B0000808A0F500114FEA3101704710B591EA08
:1020C000030F81F000413FF599AC83F0004300F02D
:1020D000D5B800002DE9F04101F5801CBCF5001FCA
:1020E000C0F2A9804FEA115C21EA0C5141F4801141
:1020F0000CF1FD0C5FEA5C0C0CF5C07C01D34000D8
:102100004941890241EA905187022EA48E0EA45DB6
:102110000A0C04FB04F602FB06F6C6F14046A4FBDB
:102120000662F60D46EA422606FB06F4A4FB0123EE
:102130005242C3F1404338BF5B1EA6FB024200245B
:10214000E6FB0324D20B42EA4446A6FB0623A1FB8E
:1021500002E2A3FB07E4E3FB61426442C2F1404EAA
:1021600038BFAEF1010EA6FB04234FF00002E6FBE0
:102170000E32A2FB03463400E2FB6264A1FB06E6DA
:10218000A4FB07E8E4FB61687642C8F1405838BF19
:10219000A8F10108A2FB06E4A3FB08E5E2FB6854F2
:1021A000A1FB05E6A7FB04E8E1FB648618F1200526
:1021B00056F10006A80940EA8660B109A8F11B089B
:1021C00008F03F08B8F10A0F1CD901EB0C51BDE82B
:1021D000F08100BFFCF5EEE8E2DDD8D3CFCBC7C37A
:1021E000C0BDB9B6B4B1AEACA9A7A5A3A19F9D9B34
:1021F0009A9896959392908F8D8C8B8988878685F7
:1022000084838281A0FB006800FB01F208EB420896
:10221000B8EB872807D5341858EB0104D5D5401CF6
:1022200051F10001D1E7341A78EB0104CDD4401EFE
:1022300071F10001C9E75FEA4C0C5FEA9C5C0DD1CB
:1022400005D301F000414FF00000BDE8F081BDE88A
:10225000F04170B5FFF7DEFE6DDBFFBEBDE8F0417B
:1022600001494FF0000070470000F87F10B591EA77
:10227000030F48BF83F000433FF5C0AB841A71EBF6
:10228000030C07D28CF0004C121943EB0C03001B1B
:1022900061EB0C014FEA1154A4EB135CDFF8A4E1ED
:1022A0001EEA430F18BF9EEA445F00F0B48021EAA3
:1022B000045123EA6E035242C3EB6E0338BF5B1E28
:1022C000DCF1200E25D322FA0CFE10EB0E0043FAAF
:1022D0000CFE41EB0E01CCF1200E03FA0EFE10EBCA
:1022E0000E00CCF1200E51F1000129D401EB045174
:1022F00012FA0EF2BDE8104058BF7047401C1CBFD8
:10230000B2F1004F704700280CBF491C20F00100BB
:10231000704712EB020E43EB030218BF4FF0010EA1
:102320004EEA4202ACF1200CDCF11E0E56D943FA03
:102330000CFE10EB0E00CCF11E0E51F1FF31D5D585
:102340000EF1010E12FA0EFE404141EB010101EBCC
:10235000445C5FEA5C5C10D901EB045110EBDE7069
:1023600038BFBEF1004FBDE8104018BF70470028CD
:102370000CBF491C20F00100704734D24FEAD42C26
:1023800024F4006411F500111BD0B1FA81F20B3A6C
:10239000A41AA41ED2F12003914030FA03F319438A
:1023A000904001EBCC7101EB0451002CBDE81040D2
:1023B000A8BF704701F1C04101F000414FF000009B
:1023C0007047B0FA80F310FA03F102D1BDE8104073
:1023D0007047E41A173C4805C90AE2E701EB0451CB
:1023E000BDE81040704749104FEA300001EB04513E
:1023F000BDE8104002E04FF0000170474A0008BFFE
:102400000042F8D0B2F5001F28BF704701F000412C
:102410004FF0000070479EEA445F07D011EA5E0F5C
:10242000BDE8104004BF002100207047BDE8104007
:1024300070B5FFF7EFFD00BF40DFF63E104683F0BA
:10244000004170470000E0FF43004FEAD30C4FEA21
:102450003C0C43401FBF40070CF1605113F0FE4F8E
:1024600070471CF0006F03D10CF000410020704752
:102470000CF0004343EA507040EACC0010B500F085
:102480000EF900BF000000924FEA0001FFF710BEF6
:102490004FF00041A1F500214FF00000704700000F
:1024A00090EA010F48BF81F0004100F14A81421AD1
:1024B0003CBF801A89184FEAD052A2EBD1534FF09B
:1024C0007F4C1CEA410F18BF9CEA026F00F03B8072
:1024D0004FF0004C4CEA00204CEA012121FA03FCA9
:1024E00010EB0C0C1ED202F1FF325FEA1C2040EB15
:1024F000C25038BF70471CF07F0F4FEA400C18BF26
:10250000BCF17F4F38BF7047C3F12003994008BF2B
:1025100020F00100BCF17F4F38BF7047A0F1C040F0
:1025200000F003B94FEA3C00000A40EBC25028BF5C
:102530001CF0FF0F4FEA400CE6D018BFBCF17F4FF4
:1025400038BF7047EAE79CEA026F05D010EA5C0FDB
:1025500008BF00F00040704710B500F0A0F800BFC1
:1025600064FBBE3E41000B0ED3F19E0208D950F42D
:1025700000034FEA032323FA02F048BF40427047AA
:1025800010B500F08CF800BF4992248000207047FD
:102590006FF0004282EA2000704700004FF47F0C89
:1025A0001CEAD0121EBF1CEAD11392EA0C0F93EA68
:1025B0000C0F00F0478090EA010F48BF42F4807290
:1025C0004FF0004C4CEA00204CEA012102EB0302E0
:1025D000A0FB0113A2F50002002918BF43F001037C
:1025E0005B0028BF4FEA330342EB22425FEA132C21
:1025F0004CEBC2502EBFBCEB436FB2F57C0F704763
:102600004FEA036CBCF1004F08BF20F00100B2F5A7
:102610007C0F38BF70470BD582F0FF0212F5803F68
:10262000C8BF704700F1C040D8BF00F000407047FD
:1026300000F5000C5FEA4C0C48BF7047B0F1C04099
:1026400000F073B80CEAD11390EA010F48BF42F4CE
:102650008072624538BF634504D280EA010000F011
:102660000040704710B500F01AF800BF8900013E25
:1026700000F007B800F009B85FEA410C5FEA1C6C93
:1026800008D080EA010000F050B85FEA400C5FEA31
:102690001C6CF6D14FF00040A0F5800070470EF1A1
:1026A000020E2EF0030E5EF8044B244204D44FEACF
:1026B0004102B2F17F4F11D84FEA4003B3F17F4F8F
:1026C0000CD80ED14FEAD07C0CEB4C0C0CF1020C68
:1026D000B2F17F4F08BF4CEBD17C04E04FF0080C07
:1026E00001E04FEAD17C0CEB4C0324FA03F404F034
:1026F0000704B4F1040C06D20EEB840CBDE81040C4
:102700004CF0010C6047DFE80CF0070802024FF0C4
:102710000040A0F5800010BD0846420018BFD2F16D
:10272000807288BF00F0004010BDFF2141EAD05008
:10273000C005704790EA010F48BF81F000413FF5A6
:10274000B6AE421A04D882F00042A0EB0200114457
:102750004FEAD052A2EBD1534FF07F4C1CEA410F0D
:1027600018BF9CEA026F4AD04FF0004C4CEA0020A0
:102770004CEA012121FA03FCB0EB0C0C0FD412F04F
:10278000FE0F36D05FEA4C001DD5001240EBC25060
:1027900038BF70471CF03F0F18BF70470BE05FEA6F
:1027A0001C20A2F1010240EBC25038BF70471CF060
:1027B0007F0F18BF7047C3F12003994014BF401E1C
:1027C00020F0010070474FEA1223800808BF7047CD
:1027D000B0FA80FCA2EB0C02CCF1280C60FA0CF0F1
:1027E00093EA122F04BF00EBC25070474FEAC37048
:1027F0007047130A5FEADC1008BF7047F6E79CEAEF
:10280000026F04D010EA5C0F08BF0020704710B5BB
:10281000FFF745FF40DFF63E81F0004070470CF0C7
:102820000F03092B08BF082000F059800A2B0BD09A
:10283000082B18BF704708BF1CF0400F0AD04FF09C
:1028400000004FF0000170471CF0400F18BF4FF020
:10285000004070471CF0100F08D000F07F4220F0BD
:10286000704342EAD3014FEA4370704700F0604082
:1028700021F07F4242EA000201F07F4040EA72709C
:1028800070474FF0FF0C4CF4E06C1CEA11531CBF76
:102890009CEA030C9445C2BFDA4201EB0251704737
:1028A000002B0DD0BCF1000F0FD001F00041002A29
:1028B000A4BF41F0E04141F07F614FF0000070475C
:1028C00001F000414FF00000704750EA01334FF033
:1028D0009B0C18BF4CF0806C7FF430A970471CF43F
:1028E000801F11D01CF4E02F03D06FEACC314900D7
:1028F00070474FF04050EFF3008222F0704242EAFE
:10290000000282F3008870474FF00000704700001B
:102910004FBB610567ACDD3F182D4454FB21E93FF7
:102920009BF681D20B73EF3F182D4454FB21F93FE6
:10293000E2652F227F2B7A3C075C143326A6813C6C
:10294000BDCBF07A8807703C075C143326A6913C17
:10295000C4EB98999999C9BF711623FEC671BCBF83
:102960006D9A74AFF2B0B3BF9AFDDE522DDEADBFEB
:102970002F6C6A2C44B4A2BF0D5555555555D53F03
:10298000FF8300922449C23F6E204CC5CD45B73F1E
:10299000513DD0A0660DB13FEB0D76244B7BA93F96
:1029A00011DA22E33AAD903F000000000000000081
:1029B0000D0A3D3D3D204D50553630353020546593
:1029C0007374203D3D3D0D0A00416363656C2052E8
:1029D0004157202D20583A20004779726F205241EC
:1029E00057202D20583A2000416363656C205072B7
:1029F0006F636573736564202D20583A2000477912
:102A0000726F2050726F636573736564202D205858
:102A10003A200020593A2000205A3A2000416E679F
:102A20006C6573202D2050697463683A2000205231
:102A30006F6C6C3A2000205961773A20004D505558
:102A400036303530204465746563746564212044F4
:102A500065766963652049443A203078004D5055C9
:102A600036303530204E6F7420446574656374656C
:102A70006421204465766963652049443A203078B2
:102A800000000000A42A0000000000200400000054
:102A9000E8020000A82A000008000020A8040000A6
:082AA000080300000100000022
:040000050000026D88
:00000001FF
