:020000040000FA
:10000000D80400206D02000071020000730200009D
:100010007502000077020000790200000000000075
:100020000000000000000000000000007B02000053
:100030007D020000000000007F020000810200003D
:10004000830200008302000083020000830200009C
:1000500083020000D124000083020000830200001C
:10006000830200008302000083020000830200007C
:10007000830200008302000083020000830200006C
:10008000830200008302000083020000830200005C
:10009000830200008302000083020000830200004C
:1000A000830200008302000083020000830200003C
:1000B0008302000083020000011700008302000099
:1000C000830200008302000083020000830200001C
:1000D000830200008302000083020000830200000C
:1000E00083020000830200008302000083020000FC
:1000F00083020000830200008302000083020000EC
:1001000083020000830200008302000083020000DB
:1001100083020000830200008302000083020000CB
:1001200083020000830200008302000083020000BB
:1001300083020000830200008302000083020000AB
:1001400000000000000000000000000000000000AF
:10015000830200008302000083020000830200008B
:10016000000000000000000000000000000000008F
:10017000000000000000000000000000000000007F
:10018000000000000000000000000000000000006F
:10019000000000000000000000000000000000005F
:1001A000000000000000000000000000000000004F
:1001B000830200008302000083020000830200002B
:1001C000830200008302000083020000830200001B
:1001D000830200008302000083020000830200000B
:1001E00083020000830200008302000083020000FB
:1001F00083020000830200008302000083020000EB
:10020000830200008302000083020000000000005F
:1002100083020000830200008302000083020000CA
:1002200083020000830200008302000083020000BA
:1002300083020000830200008302000083020000AA
:10024000830200008302000083020000830200009A
:10025000830200008302000083020000830200008A
:1002600083020000830200008302000000F00AB84D
:10027000FEE7FEE7FEE7FEE7FEE7FEE7FEE7FEE756
:10028000FEE7FEE700F002F800F0A6F814A696E8F4
:10029000000CB244B344DA4501D100F09DF8BAE84D
:1002A0000F000FA696E83000A5EB040504EB060747
:1002B000AAEB0704A7F101074FEA15154FEA34141A
:1002C000A4F10104AC4201D300F086F813F0010F51
:1002D00018BFFB1A43F0010300F001F8DBE71847F1
:1002E000D4450000F4450000103A24BF78C878C116
:1002F000FAD8520724BF30C830C144BF04680C602C
:1003000070470000704700000023002400250026ED
:10031000103A28BF78C1FBD8520728BF30C148BF68
:100320000B6070476E2900F04181702900F08382D4
:10033000662904F02C81652904F02981672904F0DD
:100340002681612904F0258103681B0A28BF41F03A
:100350008001692900F0EE80642900F0EB807529A6
:1003600000F0E8806F2900F01182782900F04F82B8
:10037000E92900F0AB81E42900F0A881F52900F01B
:10038000A581EF2900F00E82F82900F04E82036863
:10039000DB0928BF41F08001632900F053877329EE
:1003A00000F05887E32900F06387F32900F068879D
:1003B000002070471FB500F0BDFF040000200021A1
:1003C00003F084F9401C60600020002103F068F90C
:1003D000E0601FBD10B510BD00F07EFF1146FFF7B5
:1003E000E9FF02F099FA01F05BF803B4FFF7F2FFBE
:1003F00003BC01F09FF8000072B6704762B6704708
:10040000EFF3108072B6704780F31088704730BFEA
:10041000704702480249014A024B7047D800002049
:10042000D8040020D80000200FB41CB5084B06AA41
:100430007B4469460090059800F0D1F804460020FE
:10044000694600F0DFF820461CBC5DF814FB000094
:10045000D101000070477047704710B500F0BAFA3C
:10046000006810BD10B5044600F0B4FA046010BD79
:1004700070B5044685690068C10601D5302600E0E4
:100480002026C00707D070BDD4E90121304690472F
:10049000206A401C20626D1EF6D570BD70B5044602
:1004A00085690078C00707D170BDD4E901212020FB
:1004B0009047206A401C20626D1EF6D570BD096809
:1004C0004A0501D540B27047C905FCD500B2704756
:1004D00009684A0501D5C0B27047C905FCD580B28C
:1004E000704770B50C460546012A05D0287880066D
:1004F00000D5EA69002302E0012305E05B1C93427A
:1005000002D2E05C0028F9D1A869E618C01AA861F7
:10051000286A184428622846FFF7AAFF04E0D5E9B4
:10052000012114F8010B9047B442F8D32846FFF795
:10053000B5FF70BD2DE9F04106460024106875290D
:10054000314616A510D0FFF7BAFF002802DA404264
:1005500013A507E031688A0701D512A502E0490713
:1005600004D511A5012401E0FFF7B2FF00210A2202
:1005700006F1240709E0B0FBF2FCB0FBF2F302FB4A
:100580001C00303078541846491C0028F3D123460B
:100590002A463046BDE8F04100F065BA0000000090
:1005A0002D0000002B0000002000000011680268F0
:1005B000006A530501D508700AE0D30501D508800B
:1005C00006E0130603D5C217C1E9000200E0086087
:1005D0000120704701694A1C02610878704700B524
:1005E0008FB0CDE901310021059105497944CDE96C
:1005F00003101146684600F029F90FB000BD000055
:10060000E5FFFFFF0A6802F8010B0A60704700006F
:100610002DE9FF5F15468A460446DFF8AC80F844B2
:100620000027D8E900103E46CDE9001010E03AF866
:1006300016106A4602A800F027FE411C07D0217858
:10064000890603D5E269391891420DD80744761C12
:100650002078800602D5E069B84205DDAE42E6DBCF
:100660003AF816000028E2D1A069C01BA06120461C
:10067000FFF7FEFED8E90010CDE90010002017E0DA
:100680003AF818106A4602A800F0FEFDB0F1FF3FEC
:1006900081460BD000250DF1080B05E0D4E90121BE
:1006A0001BF8050090476D1C4D45F7D308F101007C
:1006B000B0428046E4DB206A384420622046FFF7DF
:1006C000EDFEBDE8FF9F0000664000002DE9F0410F
:1006D0008046D21D22F007020025D2E90002F5294A
:1006E00015A614D0011E72F1000106DA0023D0EB2A
:1006F000030063EB020211A608E0D8F800108B0794
:1007000001D50FA602E0490701D50EA60125114625
:10071000002408F1240704E000F060F930323A5573
:10072000641C50EA0102F7D12B463246214640466E
:10073000BDE8F04100F097B9000000002D00000076
:100740002B0000002000000030B4002100F1240440
:1007500008E002F00705D208303542EA4372DB08B0
:100760006554491C52EA0305F3D10468002310A222
:10077000250708D504F020040C4304D0C4690123E4
:100780000CA2641EC46130BC00F06DB910B5044603
:1007900021461068FFF79CFE02462046BDE8104047
:1007A0000023D1E7D21D22F00701D1E90023CBE7D6
:1007B0000000000030000000F0B40D46018809057B
:1007C00002D5214C7C4402E01F4C7C440E340021B5
:1007D00000F1240608E002F00F071209E75D42EA83
:1007E00003721B097754491C52EA0307F3D10278BC
:1007F0000023120704D5702D06D009B1022311344D
:100800002246F0BC00F02FB901231034F8E770B590
:1008100004460D4621461068FFF75AFE0246294657
:100820002046BDE870400023C6E7D21D22F0070332
:10083000D3E90023C0E70368126843F02003036094
:100840000823C3610023B7E7C83E00002DE9F05F2D
:10085000894604464FF0000ADFF874B1FB44C0F843
:1008600020A02046E1688847002874D0252806D0BB
:10087000D4E901219047206A401C2062F1E700265C
:100880005F462046E16888472028054607DB312D72
:1008900005D2781910F8200C08B10643F1E7B0072B
:1008A00001D526F00406C4F81CA00027C4F818A03F
:1008B0002A2D09D0284602F0E7FC38B304EB87085C
:1008C000303DC8F8185019E059F8041B204604EBD5
:1008D00087029161E1688847012F054618D1E069D8
:1008E000002820DA26F020061DE0D8F8180000EBDA
:1008F000800005EB40003038C8F818002046E16859
:100900008847054602F0C0FC0028EED1012F0AD02E
:100910002E2D08D12046E16888477F1C0546022F0E
:1009200046F02006C4DBA069002803DA404246F006
:100930000106A061F00701D026F010066C2D0BD047
:10094000682D09D04C2D39D06A2D35D0742D35D075
:100950007A2D33D016E038E0E1682F4620468847EC
:10096000B842054609D16C2F26D04FF48060E1686B
:10097000064320468847054604E06C2F1AD04FF402
:10098000807006430DB3A5F14100192802D8203527
:1009900046F400664A462946204626604E46FFF742
:1009A000C1FC80B101280BD0F61D26F0070000F134
:1009B000080956E74020E4E78020D8E70020D6E782
:1009C00006F104094DE7284652E7206ABDE8F09F8A
:1009D000583E0000004870470800002030B5B0F1D4
:1009E0000A0271F100034FEA900E4EEA817EB0EBED
:1009F0000E0061EB91014FEA101E4EEA017E10EBF2
:100A00000E0041EB11114FEA102E4EEA016E10EB71
:100A10000E0041EB11214FEA104E4EEA014E10EB51
:100A20000E0041EB1141401841F100014FEAD000A6
:100A300040EA41704FEAD1014FEA810444EA9074E0
:100A400010EB800544EB01046D1944EB0404521BC8
:100A5000A3414FF0000348BF0A3200D530BD401C0F
:100A600041F1000130BD2DE9F0470D46994692460F
:100A7000044600F124080168880604D5E06921F0E5
:100A80001001216000E00120A84201DD471B00E0C9
:100A90000027A1697A1902EB0900081AA0612078E1
:100AA000C00602D42046FFF7E3FC002608E0D4E9A4
:100AB00001211AF806009047206A401C761C20622B
:100AC0004E45F4DB2078C0060AD52046FFF7D0FC5F
:100AD00006E0D4E9012130209047206A401C2062C2
:100AE000381EA7F10107F4DC07E0D4E9012118F86A
:100AF00005009047206A401C2062281EA5F10105D0
:100B0000F3DC2046FFF7CAFC2078000602D502205D
:100B1000BDE8F0870120FBE72DE9FF4F0C461E469C
:100B20004FF0FF378BB0D2E90001DDF860800A900A
:100B30008A46C1F30A5505B93D46002108464FF0E3
:100B40000000BAF1000F00F4400005DA00EB80006D
:100B50004FF4400101EA50004FEA9059B9F1010FFA
:100B600000DDB9460A9850EA4A000ED044F610500B
:100B7000A5F2FF3545432F14B8F1000F1ED0754282
:100B8000291E1EDDC9F100021CE0B8F1010F4FF073
:100B9000000001D0302103E0F24305E02154401C65
:100BA000B042FBDB30460022002121540B99C1F8F2
:100BB0000880C1E900200FB0BDE8F08FBD1B6D1C9F
:100BC000DEE74A4600DA694206A800F0F7FB06AB0A
:100BD00093E8070003AB83E8070050460A9901F049
:100BE00015FF8DE80700A0F500501F38009003980E
:100BF000002D0ADD42F21F014A460844002303A9E2
:100C00000390684602F07EF909E0A0F500504A46DC
:100C10001F38002303A90390684602F088F98DE885
:100C200007000004000C03D04FF0FF30410800E043
:100C30001046B8F1000F03D00022009215461EE0C6
:100C4000751E05D4FFF7CAFE303262556D1EF9D508
:100C5000B3460122084302D000227F1C04E0207822
:100C6000302801D100227F1E002A099784D01DE080
:100C7000112D07DAFFF7B2FE303262556D1C50EAD3
:100C80000102F5D1084302D00098C8B10EE000215E
:100C9000681E05E0235C625C63542254401E491CBC
:100CA0008142F7DBAB46A81B401E0990002004F8E8
:100CB0000B000B98099AC0F80880C0E9002B7AE76E
:100CC00011264FF0000857E72DE9F04F88460446FB
:100CD000D21D22F0070191B0D1E90001CDE90A014E
:100CE00002F05CFA02460B98C00F01D02D2007E0FD
:100CF0002068810701D52B2002E0202101EAC000F5
:100D0000032A099001D0072A05DB03464146204605
:100D100000F014FB0BE12078800601D5E06900E0CB
:100D20000620B8F1650F814606D0B8F1660F18D0DD
:100D3000B8F1670F70D131E00020B9F1110F0090C8
:100D400001DB112301E009F101030AAA01A90CA8A2
:100D5000FFF7E2FEDDE90C70002609F1010583468C
:100D600047E001204B4600904FF000470AAA01A936
:100D70000CA8FFF7D1FEDDE90DB00C995D46002609
:100D800010B909F101000D18B9EB050003D4C0F149
:100D9000FF3609F10105A5EB09002BE0B9F1010FC0
:100DA00001DA4FF001090020B9F1110F0090484617
:100DB00001DD112300E003460AAA01A90CA8FFF7F0
:100DC000ABFEDDE90C704D46002683462078000717
:100DD0000AD4AB4500DA5D4601A8012D04DD4119B6
:100DE00011F8011C302907D04F4502DA17F1040F22
:100DF00004DA012082460FE06D1EEEE7002F02DCD0
:100E0000ED1B3E4403E0781CA84200DD7D1CB81BAE
:100E100000F1010A4FF000472078000703D4AA45EB
:100E200001DB4FF0FF3A0021B7F1004F0DF143080D
:100E30008DF8431024D002202B23002F01DA7F42AB
:100E40002D230A21021EA0F1010000DC5FB197FBF7
:100E5000F1FC97FBF1F201FB1C7C17460CF1300C06
:100E600008F801CDEEE7A8F101000370218809051B
:100E700001D5452100E06521A0F1010800F8011C21
:100E800009980FA9A1EB0807FF1D00B10120411926
:100E900001EBEA70A1693844081A401EA06120786D
:100EA000C00602D42046FFF7E3FA099828B1D4E936
:100EB00001219047206A401C20622078C00622D57C
:100EC0002046FFF7D5FA1EE0002E04DBB34502DD15
:100ED00001A8805D00E03020D4E901219047206A1C
:100EE000401C2062761CAAF101005FEA000A0AD1C8
:100EF00000F020FAC0680168405CD4E90121904705
:100F0000206A401C2062281EA5F10105DCDC07E0F8
:100F1000D4E9012118F8010B9047206A401C206297
:100F2000381EA7F10107F3DC2046FFF7B7FA0320CC
:100F300011B041E62DE9F04F04460D46D21D22F0D6
:100F4000070089B0D0E900974846394602F026F9F3
:100F50000246F80F01D02D2307E02068810701D554
:100F60002B2302E0202101EAC0038DF820300BB1D1
:100F7000012000E00020032A824601D0072A04DB7A
:100F80002946204600F0DAF93FE12078800601D4B6
:100F90000D2500E0E569C7F30A560D2D49DA002159
:100FA0004FEA175B08464FF00000002F00F44000A6
:100FB00007DA00EB80004FF4400100EBD07001EA4B
:100FC00060008115012901DD4FF0FF3100224FEA59
:100FD000850CBCF1180F06D31346ACF118004FF086
:100FE0008052C24003E04FF4801323FA0CF30CF15B
:100FF0000C0CBCF1200F04D3ACF1200C09FA0CF05E
:1010000001E007FA0CF000294FF0004801DD18B9A3
:101010000FE00ED140450CD319EB02095F4121B915
:10102000404502D19F4329EA0209BBEB175F00D07C
:10103000761C2088000502D57B48784402E07A4877
:101040007844193808AA302302F80A30037C0AF1E0
:101050000101002E0AF1020A53546A4602DC4FF0E5
:10106000300101E04FF031014FF001088DF8001020
:1010700002D0A6F2FF3603E059EA470100D06B4EDA
:10108000002D02DC2178090704D54FF002082E213B
:101090008DF80110C44600210BE0C7F303433F0164
:1010A000C35C491C6D1E02F80830052908F10108CF
:1010B00001DA002DF1DC00210CE000EB1973491C72
:1010C0001B786D1E082902F808304FEA091908F14B
:1010D000010801DA002DF0DC21688B0602D516E04C
:1010E000A8F10108E04505DD02EB080313F8013C17
:1010F000302BF5D0B8F1000F09DD02EB080313F82F
:10110000013C2E2B03D1090701D4A8F10108002DC1
:1011100005DD3E2102F808106D1E08F10108407C33
:10112000002E02F8080008F1010804DA2D207642AA
:1011300002F8080002E02B2002F808000A214FF410
:101140007A70864208F101080BDB96FBF0F330332E
:1011500002F8083096FBF0F308F1010800FB136673
:1011600001E0642E0CDB642096FBF0F3303302F8D0
:10117000083096FBF0F308F1010800FB136601E06C
:101180000A2E06DB96FBF1F0303002F8080008F179
:10119000010896FBF1F001FB1060303002F8080006
:1011A000A16908F1010808EB050202EB0A00081A20
:1011B000A0612078C00602D42046FFF759F9216AC1
:1011C00008AE01EB0A00206204E0D4E9012116F820
:1011D000010B9047BAF1010AF7D22078C00602D578
:1011E0002046FFF745F96E4609E016F8010B3E2848
:1011F0000FD0D4E901219047206A401C2062B8F149
:101200000108F2D22046FFF749F909B00320BDE8F2
:10121000F08F206A2844206203E0D4E901213020C5
:1012200090476D1EEBD3F8E74537000002FCFFFF47
:1012300010B5436913B1AFF3008001E0FFF751F936
:10124000012010BD127800F124010A7000224A70BA
:101250000122EDE711684FF0FF32E9E710B543696D
:1012600013B1AFF3008001E0FFF7D2F9012010BD08
:10127000128800F1240182840022C2840122EDE759
:1012800011684FF0FF32E9E72DE9F04116460C46B0
:10129000054600F047F8036893F80101012807D0DC
:1012A000FF2C12D8185D80B101202C70BDE8F081B0
:1012B000D3F807013246214603F20713C718284620
:1012C000BC46BDE8F041002360474FF0FF30EDE73A
:1012D00000487047080000207546FFF7F9FFAE464A
:1012E00005006946534620F00700854618B020B532
:1012F000FFF78FF8BDE820404FF000064FF00007E1
:101300004FF000084FF0000BAC46ACE8C009ACE869
:10131000C009ACE8C009ACE8C00921F007018D465E
:101320007047000010B500F005F8001D10BD00BFAB
:101330009D23000000487047280000202DE9F0415F
:101340001F46044603260168072A01F4006004DBF7
:1013500008B116A505E016A503E008B115A500E043
:1013600015A521F010002060A069C01EA0610FB17A
:10137000401EA0612046FFF77BF84FB1D4E9012160
:1013800038469047206A401C2062C01C206206E05C
:10139000206AFAE7D4E9012115F8010B9047761E7F
:1013A000F8D22046FFF77AF8BDE8F0814E414E00B2
:1013B0006E616E00494E4600696E66002DE9F04789
:1013C000814616468AB0354878440DC88DE80D0030
:1013D00032487844801C03AC0DC884E80D0041F607
:1013E0009B300844372190FBF1F290FBF1F5A5F119
:1013F000800501FB12041B3C02D56442012000E081
:101400000020DFF898A080460027FA44AAF1BE0A1F
:101410000EE0E0070AD03246684607EB4701012399
:101420000AEB810101F083FD8DE8070064107F1C49
:10143000002CEED1194F7F44AE3F19E0E80715D0DC
:1014400007EB04100DF1180A90E80E008AE80E0070
:10145000C068F04201D1981908903246012306A9CC
:1014600003A801F064FD03AB83E807006D10641C62
:10147000002DE3D14FF0010332466946B8F1000F69
:1014800003A802D001F03EFD01E001F050FDC9E9E2
:101490000001C9F808200AB0BDE8F0874834000010
:1014A00010B50446AFF300802046BDE81040FEF7BB
:1014B0009CBF00000000000030B44FF0013C50F829
:1014C000042B51F8043BCCFA52F4D51A20D1FCB9C4
:1014D00050F8042B51F8043BCCFA52F4D51A17D12A
:1014E000B4B950F8042B51F8043BCCFA52F4D51A95
:1014F0000ED16CB950F8042B51F8043BCCFA52F4DD
:10150000D51A05D1002CDAD030BC4FF0000070475E
:1015100029BAB1FA81F111F01801D1F1200084400B
:10152000F2D1CA40CB4012F0FF0213F0FF0330BCEF
:10153000D01A704701491820ABBEFEE72600020012
:10154000704700004EF20861C4F20F01086840F0D5
:1015500020000860FFE74EF20860C4F20F00006848
:1015600000F02000202801D0FFE7F4E745F22051E9
:10157000C4F2020144F24B30C4F64F40086045F219
:101580002451C4F20201086840F01F00086045F2CF
:101590000041C4F20201086820F01100086045F221
:1015A0001C51C4F20201086840F01100086045F2C5
:1015B0002851C4F20201086820F01100086045F2C9
:1015C0002041C4F20201086820F01100086045F2D1
:1015D0001051C4F20201086840F01100086045F2A1
:1015E0000441C4F20201086820F01100086045F2CD
:1015F0000841C4F20201086820F01100086045F2B9
:101600000C41C4F20201086820F01100086045F2A4
:101610001C41C4F202011120086045F21041C4F2DD
:101620000201086840F0110008604EF21C41CEF241
:1016300000010868402262F3174008604EF2001172
:10164000CEF20001086840F080400860704700005A
:1016500082B0019000200090FFE700980199884235
:1016600034D2FFE747F20C01C4F20301086820F00E
:101670000100086047F23802C4F203020020106043
:1016800047F22802C4F2030243F67F60106047F27B
:101690002402C4F2030201201060086840F0010037
:1016A0000860FFE747F21C00C4F203000068C007AF
:1016B00008B9FFE7F6E747F22401C4F2030101206D
:1016C0000860FFE7009801300090C6E702B070475D
:1016D00082B00190FFE7019878B1FFE741F2D54071
:1016E0000090FFE7009820B1FFE7009801380090D4
:1016F000F8E7019801380190EDE702B0704700006B
:1017000080B51420FFF7E4FF45F2FC30C4F202007C
:101710000068C006002809D4FFE740F20101C2F2C8
:1017200000010A7801209043087011E045F2FC3076
:10173000C4F202000068C00748B9FFE740F20201A6
:10174000C2F200010A78012090430870FFE7FFE72A
:1017500045F21C41C4F202011120086080BD000066
:1017600085B08DF8120003910292039800900098C2
:1017700018B1FFE7029820B9FFE701208DF81300A8
:10178000A4E0FFE741F20400C4F202000068C007D1
:1017900008B1FFE7F6E79DF81200400041F20001B2
:1017A000C4F2020108600098411C0091007841F2E7
:1017B0000801C4F20201086041F20401C4F202010E
:1017C00003200860FFE741F20400C4F20200006851
:1017D000C00708B1FFE7F6E741F20400C4F20200D7
:1017E0000068C0F340008DF807009DF8070020B1A5
:1017F000FFE701208DF8130068E0FFE70298022858
:101800002ED3FFE70098411C0091007841F20801B7
:10181000C4F20201086041F20401C4F20201012095
:101820000860FFE741F20400C4F202000068C0074C
:1018300008B1FFE7F6E741F20400C4F202000068D5
:10184000C0F340008DF807009DF8070020B1FFE7C6
:1018500001208DF8130039E0029801380290CDE79D
:101860000098007841F20801C4F20201086041F2D8
:101870000401C4F2020105200860FFE741F2040000
:10188000C4F202000068C00708B1FFE7F6E7FFE70F
:1018900041F20400C4F202000068C00708B1FFE78B
:1018A000F6E741F20400C4F202000068C0F3400011
:1018B0008DF807009DF8070020B1FFE701208DF8A3
:1018C000130003E000208DF81300FFE79DF81300DC
:1018D00005B070474EF20861C4F20F01086840F08D
:1018E000010008604EF22061C4F20F01086840F068
:1018F00002000860FFE74EF20860C4F20F000068C3
:10190000C00708B9FFE7F6E744F21C51C4F2000132
:10191000086840F0C000086044F20041C4F20001D1
:10192000086840F0C000086044F22041C4F20001A1
:10193000086840F0C000086044F22851C4F2000179
:10194000086820F0C000086044F20C51C4F20001A5
:10195000086840F08000086044F22C51C4F2000195
:101960000868332262F31F60086041F22001C4F26C
:101970000201086840F01000086041F20C01C4F256
:10198000020107200860704782B08DF806008DF8CC
:101990000510FFE741F20400C4F202000068C0072E
:1019A00008B1FFE7F6E79DF80600400041F20001AC
:1019B000C4F2020108609DF8050041F20801C4F27A
:1019C0000201086041F20401C4F202010320086030
:1019D000FFE741F20400C4F202000068C00708B14A
:1019E000FFE7F6E741F20400C4F202000068C0F32A
:1019F00040008DF804009DF8040020B1FFE70020AE
:101A00008DF8070035E09DF806004000013041F2F6
:101A10000001C4F20201086041F20401C4F20201B3
:101A200007200860FFE741F20400C4F202000068EA
:101A3000C00708B1FFE7F6E741F20400C4F2020074
:101A40000068C0F340008DF804009DF8040020B148
:101A5000FFE700208DF807000BE041F20800C4F218
:101A6000020000688DF803009DF803008DF8070060
:101A7000FFE79DF8070002B07047000082B08DF8C4
:101A800006008DF805108DF80420FFE741F20400F0
:101A9000C4F202000068C00708B1FFE7F6E79DF84E
:101AA0000600400041F20001C4F2020108609DF806
:101AB000050041F20801C4F20201086041F204018C
:101AC000C4F2020103200860FFE741F20400C4F2FF
:101AD00002000068C00708B1FFE7F6E79DF80400C0
:101AE00041F20801C4F20201086041F20401C4F2AB
:101AF000020105200860FFE741F20400C4F2020081
:101B00000068C00708B1FFE7F6E7FFE741F204000D
:101B1000C4F202000068C00708B1FFE7F6E741F22F
:101B20000400C4F202000068C0F340008DF8030016
:101B30009DF8030020B1FFE701208DF8070003E0C6
:101B400000208DF80700FFE79DF8070002B07047FE
:101B500080B5012000F054F80220FFF779FD80BD28
:101B600080B582B03020009000F04AF8012001904A
:101B7000FFF76EFD009800F043F80198FFF768FD4D
:101B8000202000F03DF8282000F03AF80198FFF7F7
:101B90005FFD082000F034F80198FFF759FD019827
:101BA00000F02EF80220FFF753FD062000F028F881
:101BB0000198FFF74DFD0F2000F022F80198FFF784
:101BC00047FD02B080BD000080B582B08DF80700EF
:101BD0009DF8070000F044F802B080BD80B582B0E7
:101BE0000190FFE70198007840B1FFE70198007885
:101BF000FFF7EAFF019801300190F3E702B080BDE2
:101C000080B582B08DF807009DF8070000F0F00065
:101C10008DF806009DF8070000018DF805009DF87D
:101C2000060040F00C008DF801009DF8060040F021
:101C300008008DF802009DF8050040F00C008DF8BA
:101C400003009DF8050040F008008DF804002720EF
:101C50000DF101010422FFF783FD02B080BD0000F9
:101C600080B582B08DF807009DF8070000F0F00005
:101C70008DF806009DF8070000018DF805009DF81D
:101C8000060040F00D008DF801009DF8060040F0C0
:101C900009008DF802009DF8050040F00D008DF858
:101CA00003009DF8050040F009008DF8040027208E
:101CB0000DF101010422FFF753FD02B080BD0000C9
:101CC00080B582B08DF807008DF806109DF80700EA
:101CD000012806D1FFE79DF80600C0308DF8050009
:101CE00005E09DF8060080308DF80500FFE79DF8BF
:101CF0000500FFF785FF02B080BD00004EF20861CD
:101D0000C4F20F01086840F020000860FFE74EF2BF
:101D10000860C4F20F00006800F02000202801D005
:101D2000FFE7F4E745F22051C4F2020144F24B30E0
:101D3000C4F64F40086045F22451C4F2020108681D
:101D400040F01F00086045F20041C4F2020108683B
:101D500040F00E00086045F21C51C4F20201086810
:101D600040F00E00086045F22851C4F202010868F4
:101D700020F00E00086045F22041C4F2020108681C
:101D800020F00E000860704780B58CB007A8009066
:101D900000F014F802A8019000F0E0F8009800F0BC
:101DA00073F9019800F050FA0098019940F2AC02E2
:101DB000C2F2000200F04AF80CB080BD80B584B0D9
:101DC0000390682000903B21FFF7DEFD014600985C
:101DD0008DF80A103C21FFF7D7FD014600988DF8D9
:101DE0000B103D21FFF7D0FD014600988DF808103B
:101DF0003E21FFF7C9FD014600988DF809103F21EB
:101E0000FFF7C2FD014600988DF806104021FFF74C
:101E1000BBFD8DF807009DF80A109DF80B0040EA05
:101E20000120039908809DF808109DF8090040EAF8
:101E30000120039948809DF806109DF8070040EAAC
:101E400001200399888004B080BD000080B594B063
:101E50001390129111921398806810901398C06893
:101E60000F90139800690E90109802F0A5F9029057
:101E700003910F9800900E99084602F047FA0099D6
:101E80000190084602F042FA019902F0C1F902F00D
:101E900093F901F0DFFB024602980B46039901F02B
:101EA0000BFB42F68762C7F6DE120C924AF213630E
:101EB000C4F24C030D9301F0BBFE01F01DFC11991F
:101EC00008600F9802F078F9069007911098049036
:101ED0000E99084602F01AFA04990590084602F095
:101EE00015FA059902F094F902F066F901F0B2FBD7
:101EF000024606980B46079901F0DEFA0C9A0D9BF4
:101F000001F096FE01F0F8FB1199486010980890D6
:101F10000F99084602F0FAF908990990084602F06C
:101F2000F5F9099902F074F902F046F901F092FB13
:101F30000A900B910E9802F03FF902460A980B4660
:101F40000B9901F0B9FA0C9A0D9B01F071FE01F0AA
:101F5000D3FB1199886014B080BD000080B584B0B7
:101F60000390682000904321FFF70EFD0146009882
:101F70008DF80A104421FFF707FD014600988DF8FF
:101F80000B104521FFF700FD014600988DF8081061
:101F90004621FFF7F9FC014600988DF8091047210A
:101FA000FFF7F2FC014600988DF806104821FFF774
:101FB000EBFC8DF807009DF80A109DF80B0040EA35
:101FC0000120039908809DF808109DF8090040EA57
:101FD0000120039948809DF806109DF8070040EA0B
:101FE00001200399888004B080BD000080B586B0D0
:101FF00068207521FFF7C8FC8DF817009DF81700C1
:1020000068280DD1FFE744F66F00C0F2000000F031
:1020100071FB9DF8170000F0A3FB00F0FBF90CE04A
:1020200044F68F00C0F2000000F064FB9DF817003A
:1020300000F096FB00F0EEF924E0682002906B219E
:1020400000918022FFF71AFD0A20FFF701FB00999B
:10205000029800220192FFF711FD02981921072230
:10206000FFF70CFD019A02981A21FFF707FD019A6C
:1020700002981C21FFF702FD019A02981B21FFF72D
:10208000FDFCFFE706B080BD80B598B017906820D2
:102090001C21FFF779FC00F018008DF85B009DF91A
:1020A0005B0001461591182800F2CC801599DFE8F5
:1020B00001F00DC9C9C9C9C9C9C93CC9C9C9C9C97A
:1020C000C9C96BC9C9C9C9C9C9C99A0017981090AB
:1020D000B0F9000001F094FD002212920023C4F236
:1020E000D003139301F0F6FB01F006FB1099886012
:1020F00017981190B0F9020001F082FD129A139B1B
:1021000001F0E8FB01F0F8FA1199C86017981490F3
:10211000B0F9040001F074FD129A139B01F0DAFB90
:1021200001F0EAFA149908618CE017980B90B0F965
:10213000000001F065FD00220D920023C4F2C003EF
:102140000E9301F0C7FB01F0D7FA0B99886017983E
:102150000C90B0F9020001F053FD0D9A0E9B01F0B6
:10216000B9FB01F0C9FA0C99C86017980F90B0F943
:10217000040001F045FD0D9A0E9B01F0ABFB01F050
:10218000BBFA0F9908615DE017980690B0F900005E
:1021900001F036FD002208920023C4F2B003099337
:1021A00001F098FB01F0A8FA06998860179807904B
:1021B000B0F9020001F024FD089A099B01F08AFBA6
:1021C00001F09AFA0799C86017980A90B0F90400CC
:1021D00001F016FD089A099B01F07CFB01F08CFAD6
:1021E0000A9908612EE017980190B0F9000001F0FB
:1021F00007FD002203920023C4F2A003049301F020
:1022000069FB01F079FA0199886017980290B0F99A
:10221000020001F0F5FC039A049B01F05BFB01F066
:102220006BFA0299C86017980590B0F9040001F0A4
:10223000E7FC039A049B01F04DFB01F05DFA059960
:102240000861FFE718B080BD80B598B0179068208E
:102250001B21FFF799FB00F018008DF85B009DF93A
:102260005B0001461591182800F2D2801599DFE82D
:1022700001F00DCFCFCFCFCFCFCF3DCFCFCFCFCF6F
:10228000CFCF6DCFCFCFCFCFCFCF9E0017981090AD
:10229000B0F9000001F0B4FC0022129246F20003F3
:1022A000C4F26003139301F015FB01F025FA1099B5
:1022B000886017981190B0F9020001F0A1FC129A01
:1022C000139B01F007FB01F017FA1199C8601798EA
:1022D0001490B0F9040001F093FC129A139B01F0E2
:1022E000F9FA01F009FA1499086191E017980B9036
:1022F000B0F9000001F084FC00220D9246F20003C8
:10230000C4F250030E9301F0E5FA01F0F5F90B99D0
:10231000886017980C90B0F9020001F071FC0D9ADA
:102320000E9B01F0D7FA01F0E7F90C99C8601798F5
:102330000F90B0F9040001F063FC0D9A0E9B01F0C0
:10234000C9FA01F0D9F90F99086161E01798069070
:10235000B0F9000001F054FC4FF06632089246F2EA
:102360006663C4F24003099301F0B4FA01F0C4F9C2
:102370000699886017980790B0F9020001F040FCB8
:10238000089A099B01F0A6FA01F0B6F90799C8600E
:1023900017980A90B0F9040001F032FC089A099BE2
:1023A00001F098FA01F0A8F90A99086130E017984D
:1023B0000190B0F9000001F023FC4FF06632039267
:1023C00046F26663C4F23003049301F083FA01F02D
:1023D00093F90199886017980290B0F9020001F012
:1023E0000FFC039A049B01F075FA01F085F902993C
:1023F000C86017980590B0F9040001F001FC039A39
:10240000049B01F067FA01F077F905990861FFE78D
:1024100018B080BD80B50D2000F040F90A2000F012
:102420003DF980BD81B04EF27001C4F20F01009100
:10243000086840F000400860086840F400600860E8
:102440004EF26002C4F20F02106820F4F8601060CF
:10245000106800F5A8601060086820F0700008603F
:1024600008680860086820F400500860086840F0B8
:10247000804008600868182262F39C500860FFE7FB
:102480004EF25000C4F20F0000684006002801D44C
:10249000FFE7F5E74EF27001C4F20F01086820F47F
:1024A0000060086001B0704780B5FFF7BBFF00F027
:1024B000F9F90021084600F049F8FFF70BFAFFF799
:1024C00095FDFFF74DFBFFF719FCFFF73BF880BDCB
:1024D00080B582B04CF23C00C4F200000068C00637
:1024E000002821D5FFE7FFE74CF21800C4F20000F6
:1024F0000068C006002810D4FFE74CF20000C4F2C8
:10250000000000688DF807009DF8071040F2680091
:10251000C2F2000000F052FAE6E74CF24401C4F2C5
:10252000000110200860FFE74CF23C00C4F20000FC
:1025300000688006002807D5FFE74CF24401C4F28A
:10254000000120200860FFE702B080BD80B582B0A6
:102550008DF807008DF806104EF20411C4F20F0139
:10256000086840F0010008604EF20811C4F20F0143
:10257000086840F00100086040F26800C2F2000004
:1025800000F012FA9DF8070000F0010040F200018F
:10259000C2F2000108704CF23001C4F200010020C8
:1025A00008604CF22401C4F20001082008604CF2DB
:1025B0002801C4F200012C2008604CF22C01C4F266
:1025C0000001602008604CF24401C4F2000140F2B6
:1025D000FF7008609DF80700C00728B9FFE79DF865
:1025E0000600C00770B3FFE74EF20441CEF20001CF
:1025F0000868052262F34F3008604EF20011CEF2F7
:102600000001086840F0200008609DF80700C0073E
:1026100048B1FFE74CF23801C4F20001086840F00D
:1026200010000860FFE79DF80600C00748B1FFE70B
:102630004CF23801C4F20001086840F02000086044
:10264000FFE7FFE74CF23001C4F20001086840F2F6
:1026500001321043086044F22041C4F200010868CE
:1026600040F00300086044F21C51C4F20001086805
:1026700040F00300086044F22C51C4F200010868E5
:10268000112262F30700086044F22851C4F20001ED
:10269000086820F00300086002B080BD81B08DF8AA
:1026A0000300FFE74CF21800C4F200000068800647
:1026B000002801D5FFE7F5E79DF803004CF2000183
:1026C000C4F20001086001B07047000080B582B01C
:1026D00001900198B0F1FF3F07DCFFE72D20FFF7E5
:1026E000DDFF019840420190FFE7019800F014F8E7
:1026F00002B080BD80B582B00190FFE701980078FC
:1027000040B1FFE701980078FFF7C8FF019801305A
:102710000190F3E702B080BD80B582B001900198CE
:102720000A2816D3FFE701984CF6CD41CCF6CC41F0
:102730000091A0FB0110C008FFF7EEFF009901987F
:10274000A0FB0121C90801EB8101A0EB4100019030
:10275000FFE701983030C0B2FFF7A0FF02B080BDA4
:1027600080B582B00190019810280AD3FFE7019844
:102770000009FFF7F5FF019800F00F00FFF7F0FFE9
:1027800010E00198092806D8FFE701983030C0B260
:10279000FFF784FF05E001983730C0B2FFF77EFFF6
:1027A000FFE7FFE702B080BD80B586B0FFF7D0F944
:1027B00044F65600C0F20000FFF710FA0120029024
:1027C0000021FFF77DFA44F63C00C0F20000FFF75D
:1027D00005FA40F2AC00C2F200000390006801F07C
:1027E000EBFC02460B4640F2B800C2F2000001903A
:1027F00044F66201C0F200010491FDF715FE019854
:10280000FFF7ECF902980821FFF75AFA44F63F0067
:10281000C0F20000FFF7E2F90398406801F0CCFC39
:1028200002460B46049940F2C800C2F2000005902F
:10283000FDF7FAFD0598FFF7D1F906B080BD00005D
:1028400080B582B044F64200C0F20000FFF752FFAC
:1028500040F2AC00C2F200000190006801F03AFDC5
:10286000FFF734FF44F64E00C0F20000FFF742FFCE
:102870000198406801F02EFDFFF728FF44F6520052
:10288000C0F20000FFF736FF0198806801F022FDDA
:10289000FFF71CFF44F62C00C0F20000FFF72AFFF0
:1028A00002B080BD4EF25C61C4F20F01086840F0D6
:1028B00002000860FFE74EF25C60C4F20F0000689F
:1028C0008007002801D4FFE7F5E747F20C01C4F2C6
:1028D0000301086820F00100086047F20001C4F21B
:1028E00003010420086047F20401C4F2030101203F
:1028F000086047F23802C4F203020021116047F277
:102900002802C4F2030243F67F61116047F22401FA
:10291000C4F203010860704780B584B000200190C4
:102920000390FFF7C1FD44F66800C0F20000FFF716
:1029300055F901990120FFF7C3F944F62F00C0F2C1
:102940000000FFF74BF9C820FEF782FE01988DF8D2
:102950000B00FFE740F20100C2F200000078C00760
:1029600018B1FFE7FFF710FAFFE79DF80B00013001
:102970008DF80B009DF80B000A2811DBFFE7002003
:102980008DF80B0040F20200C2F200000078C00790
:1029900018B1FFE7FFF708FFFFE7FFF751FFFFE779
:1029A0006420FEF755FED5E781B000900099002025
:1029B00008800099488001B07047000083B0019002
:1029C0008DF8031001980088013000F03F00ADF849
:1029D0000000BDF8000001994988884204D1FFE752
:1029E00000208DF80B000DE09DF8030001990A8886
:1029F00011440871BDF800000199088001208DF88C
:102A00000B00FFE79DF80B0003B070475FEA400C36
:102A100008BF91F0000F4FEA8C234FEAC12243EA2E
:102A200051514FEA1C5018BF00F5F0404FEA3000FA
:102A300018BF41F000415FEA6C5C00F02980BCF1F6
:102A4000FF3F08BF40F080407047130C06BF1204E0
:102A50004FF0100C4FF0000C130E04BF12020CF1DB
:102A6000080C130F04BF12010CF1040C930F04BFE8
:102A700092000CF1020CD30F04BF52000CF1010CB8
:102A800011464FF00002A0F11F00A0EB0C007047B0
:102A900011F0004F08BF704731F000413FF4D5AF4F
:102AA0000B0C06BF09044FF0100C4FF0000C0B0E7E
:102AB00004BF09020CF1080C0B0F04BF09010CF153
:102AC000040C8B0F04BF89000CF1020CCB0F04BF68
:102AD00049000CF1010CCCF1200322FA03F341EA86
:102AE000030102FA0CF2A0EB0C0000F101007047A8
:102AF00023F07F4720F07F4C80EA030000F0004085
:102B0000ACEB070303F57C5303F1FF032DE9804988
:102B100009B44FEA144324EA03484FEA154B25EA67
:102B20000B4E0FF2042606EB13273E7803FB0667D5
:102B3000C7F5000707FB06F64FEAD64606F1020680
:102B40004FEA543707FB066CCCF1005C4FEA1C4798
:102B50002CEA074C0CFB06F507FB06F404EB1546C4
:102B60004FEA961649085FEA320234BF00204FF060
:102B700000404FEAD13706FB07FC4FEA1C4C0CFB28
:102B80000BF7D21B03FB0CF761EB07010CFB0EF7F5
:102B9000B0EB074072EB17420CFB08F734BFA2EB17
:102BA0000742B2EB074261EB17414FEA0C444FEA90
:102BB000910706FB07FC4FEA1C4C0CFB0BF7B0EB34
:102BC000C74072EB573203FB0CF734BFA2EBC7428E
:102BD000B2EBC74261EB57310CFB0EF7B0EBC7000D
:102BE00072EB57720CFB08F734BFA2EBC702B2EBD3
:102BF000C70261EB57714FEA816141EA92114FEAD6
:102C0000826242EA90124FEA806004EBCC04039F98
:102C10004FEAD13706FB07FC4FEA1C4C0CFB0BF7C5
:102C2000D21B03FB0CF761EB07010CFB0EF7B0EBBB
:102C3000074072EB17420CFB08F734BFA2EB0742C8
:102C4000B2EB074261EB17414FEA8C5504EB9C2431
:102C50004FEA910706FB07FC4FEA1C4C0CFB0BF7F5
:102C6000B0EBC74072EB573203FB0CF734BFA2EB5B
:102C7000C742B2EBC74261EB57310CFB0EF7B0EB2A
:102C8000C70072EB57720CFB08F734BFA2EBC70208
:102C9000B2EBC70261EB57714FEA816141EA9211D1
:102CA0004FEA826242EA90124FEA806015EB4C25AF
:102CB00044F100044FEAD13706FB07FC4FEA1C4CF5
:102CC0000CFB0BF7D21B03FB0CF761EB07010CFBB2
:102CD0000EF7B0EB074072EB17420CFB08F734BF5E
:102CE000A2EB0742B2EB074261EB17414FEA813199
:102CF00041EA92414FEA823242EA90424FEA803002
:102D00004FEA0C7615EB1C1544F1000448EA034326
:102D10004EEA0B484FF0000EB2EB080C71EB0307C4
:102D200024BF624639464EEB0E0E4FF0000B0018E2
:102D3000524149414BEB0B0BB2EB080C71EB030713
:102D40007BF1000B24BF624639464EEB0E0E4FF06E
:102D5000000B0018524149414BEB0B0BB2EB080C36
:102D600071EB03077BF1000B24BF624639464EEB43
:102D70000E0E51EA020718BF46F0010616EB0E765A
:102D800055F1000254F1000103D5BDE88901BDE809
:102D90000088BDE88901BDE80048B619524141EB01
:102DA0000101A3F10103704780807F7E7D7C7B7AE7
:102DB0007978777676757473727171706F6E6E6DE7
:102DC0006C6C6B6A6A69686867666665646463638D
:102DD00062616160605F5F5E5E5D5D5C5C5B5B5A13
:102DE0005A59595858575756565555555454535380
:102DF00052525251515050504F4F4F4E4E4D4D4DDB
:102E00004C4C4C4B4B4B4A4A4A4949494848484725
:102E10004747474646464545454444444443434363
:102E200043424242424141419C46002B30D477000C
:102E30002BD04FEA37071CB503B44FF010004FF00A
:102E40001001BAF1000F06D0BCF1000FDCBF40F05A
:102E5000080040F008014FF000000FBCBDE8104032
:102E60000BF1010BBBF1010F08BF5FEA170722BF8F
:102E700012F1010211F101014FF0004143F1000391
:102E800000F0004043EA00007047F9D35708D0E74C
:102E900046EA06464FEA164613F1400F1FDD13F1CE
:102EA000200FDFBF16430A46002120335B42BED00D
:102EB000C3F1200746EA06464FEA164602FA07F72C
:102EC00046EA070622FA03F2C3F1200701FA07F7E0
:102ED00042EA070221FA03F14FF00003A7E746EAAE
:102EE000020646EA06464FEA164646EA0106BCBF17
:102EF00046EA0646360C4FF000034FF000024FF052
:102F0000000194E72DE9804C70B49A46934691E80D
:102F1000380007C831EA400C48BF34EA430C03D5F7
:102F2000FFF7E6FDFFF780FFF0BCBDE8008C2DE960
:102F3000804C70B49A46934691E8380007C810F068
:102F4000804F08BF13F0804F03D100F005F8FFF762
:102F50006BFFF0BCBDE8008C20F07F4723F07F4C76
:102F600080EA030000F0004007EB0C03A3F57C535C
:102F7000A3F1FE0392F0000F00F0B38095F0000F74
:102F800000F077802DE901494FEA114021EA00481D
:102F90004FEA144624EA064700FB06FC08FB06F647
:102FA00007FB08F818EB06484CEB164C00FB07F73C
:102FB00018EB07484CEB17404FEA124B22EA0B4E36
:102FC0004FEA154625EA06470BFB06FC0EFB06F604
:102FD00007FB0EFE1EEB064E4CEB164C0BFB07F7E9
:102FE0001EEB074E4CEB174B18EB0B0840F10000A3
:102FF00018EB0E0B58EB000840F100008F1A4FF051
:1030000000014FF000063CBFC943661B14BFB5EB7F
:10301000040C00213CBFC943F61B4FEA174427EAC2
:1030200004454FEA1C472CEA074C04FB076205FBEA
:1030300007F70CFB05F616EB074642EB174204FBBD
:103040000CFC16EB0C4642EB1C421BEB060658EB45
:10305000020241414EEA8E0E46EA9E0601D5BDE8C7
:103060000189B619524141EB0101A3F10103BDE809
:1030700001894FEA144524EA05464FEA114721EA3F
:10308000074C05FB07F406FB07F70CFB06F111EBF9
:10309000074144EB174405FB0CFC11EB0C4144EBDE
:1030A0001C444FEA124722EA074C05FB07F206FBD5
:1030B00007F70CFB06F616EB074642EB174205FB3B
:1030C0000CFC16EB0C4642EB1C456A1854F100014F
:1030D00048BF7047B619524141EB0101A3F101030A
:1030E000704795F0000F37D04FEA114221EA0246AF
:1030F0004FEA144724EA074C02FB07F106FB07F7E7
:103100000CFB06F414EB074441EB174102FB0CFCEB
:1031100014EB0C4441EB1C414FEA154725EA074CE0
:1031200002FB07F506FB07F70CFB06F616EB074656
:1031300045EB174502FB0CFC16EB0C4645EB1C421D
:10314000121951F1000148BF7047B619524141EBC5
:103150000101A3F1010370474FEA144524EA054633
:103160004FEA114721EA074C05FB07F106FB07F779
:103170000CFB06F212EB074241EB174105FB0CFC7E
:1031800012EB0C4251EB1C414FF0000648BF704758
:10319000921841EB0101A3F101037047490050EA85
:1031A000C12018BF04204A0D18BF40F0010040F2B2
:1031B000FF72B2EB515F08BF40F00200012808BF68
:1031C000052070472DE9F0414F1E00EBC701044672
:1031D000D1E9000115461E4637F006020DD02A46F9
:1031E000334600F025FD7F1E04EBC703D3E900231F
:1031F00000F0B4FA37F00602F1D1022F25D0042FE7
:1032000013D0062F18BFBDE8F0812A46334600F0E0
:103210000FFDD4E90A2300F0A1FA2A46334600F054
:1032200007FDD4E9082300F099FA2A46334600F056
:10323000FFFCD4E9062300F091FA2A46334600F059
:10324000F7FCD4E9042300F089FA2A46334600F05B
:10325000EFFCD4E9022300F081FA2A46334600F05D
:10326000E7FCD4E90023BDE8F04100F077BA012281
:1032700001F0C3B900F072BA024A0020110701F050
:10328000BCB9000001FDFFFF30380A2801D201203F
:1032900070470020704700002DE9F84F04460D46A6
:1032A00021F0004000917349814211DC724988424B
:1032B00001DC06D12CB120462946BDE8F84FFFF7C6
:1032C000D6BF6E48002DCCBF6D496E49BDE8F88F62
:1032D0006D49814211DD6D498142D8BF4FF0FF3603
:1032E0006DDD20462946FFF759FF042808BFFFF788
:1032F000C3FF20462946BDE8F88F6549654F25F094
:103300000045814233DD6449814219DD00263246A1
:103310004FF080432046294600F020FA80468A4636
:1033200001222046294601F068F900223B4600F0C0
:1033300055FE4246534600F0CDFA04460D463EE0A7
:1033400001260022BA463B462046294600F006FAEE
:1033500080460F46002253462046294600F03EFE96
:1033600042463B4600F0B6FA04460D4627E04B497C
:1033700081421BDDDFF828A10226002253462046A9
:10338000294600F055FC00223B4600F0E7F9804654
:103390000F46002253462046294600F01FFE4246B3
:1033A0003B4600F097FA04460D4608E00326224605
:1033B0002B4600203B4900F08DFA04460D4622467C
:1033C0002B461046194600F033FC8B4682460246D7
:1033D0000B4600F02DFC07460246334888460B4654
:1033E00006217844FFF7EEFE52465B4600F020FCD3
:1033F00082462E488B463A46434605217844FFF7DD
:10340000E1FE3A46434600F013FC02460B46002E0E
:10341000504659460CDA00F0A1F922462B4600F03E
:1034200007FC01B022462B46BDE8F04F00F0FEBC81
:1034300000F094F922462B4600F0FAFB1C4A7A442D
:1034400002EBC603D3E9002300F0C8FD22462B4659
:1034500000F0C4FD174A7A4402EBC603D3E9002307
:1034600000F0E4FC009A002AB8BF81F00041BDE8FA
:10347000F88F0000000010440000F07F182D445425
:10348000FB21F93FFB21F9BF0000DC3F0000203E9B
:103490000000F33F0000F03F0000E63F00800340E3
:1034A0000000F83F0000F0BF5213000010130000AE
:1034B000AE120000761200002DE9F04D9446CCF1DA
:1034C000000423F000464CEA0404594F46EAD47441
:1034D0009A46884621F00042BC4206D8454240EA5E
:1034E000050442EAD474BC4204D9BDE8F04D6246FA
:1034F000FFF7C0BEAAF14055A5F17F6555EA0C045F
:103500000BD0022404EAAA744A4DDFF82CE144EA05
:10351000D87452EA000B04D00CE0BDE8F04DFFF780
:10352000BBBE002C14BF012CBDE8F08D022C30D0A6
:10353000032C32D056EA0C0B0AD0BE4220D1BA423C
:1035400009D126F0804622F080423346114617E02A
:1035500000291ADB25E0DFF8E4B0FB44002C04BFAF
:10356000DBE90001BDE8F08D012C02BFDBE90001C1
:1035700081F00041BDE8F08D022C0AD0032C0CD064
:10358000BA4212D1B8F1000F0BDA2A482C49BDE833
:10359000F08D28462B49BDE8F08D28467146BDE8E0
:1035A000F08D24482849BDE8F08D921B12153C2A65
:1035B000C4BF204F244E10DCBAF1000FBEBF12F181
:1035C0003C0F00273E4608DB624600F083F921F0FD
:1035D0000041FFF761FE07460E4694B1012C08BF7B
:1035E00086F000460DD0194A194B022C3846314658
:1035F00015D000F0F3FC2A46BDE8F04D114B00F069
:10360000EDBC002213463846314600F0BDFA04BF37
:103610000220FCF727FF38463146BDE8F08D00F068
:10362000DDFC2A46BDE8F04D064B00F0FFBB000074
:103630000000F07F182D4454FB2109C00A1200003D
:10364000FB21F9BFFB210940FB21F93F075C143343
:1036500026A6A13C2DE9F04106460F4600F0F2FBFC
:10366000041E0D4618BF0120284320F00040C0F181
:103670007F6000F1E040C00F0ED0301C18BF012069
:10368000384320F00040C0F17F6000F1E040C00FFF
:1036900004BF0120FCF7E6FE20462946BDE8F08184
:1036A00010B500290AD00878002807D005487844CA
:1036B000FDF702FF002801D0002010BD0248784429
:1036C00010BD0000261200001E12000010B50029D7
:1036D0000AD00878002807D005487844FDF7ECFEAA
:1036E000002801D0002010BD0248784410BD000021
:1036F000161200000E12000021F0004201F00043FB
:10370000A2F16052B2F5801F28BFD2F17F6C0BD9B5
:103710005FEA001C43EAC20242EB507018BF7047D8
:1037200028BF20F001007047B2F5801FBCBF1846CB
:1037300070474FEA410C1CF5001F02D2084600F00A
:10374000ACBE70B500F01EFB00000089FFF7F6BFAD
:103750004FF00040A0F580007047000010B591EADE
:10376000030F48BF83F0004300F14084841A71EBDB
:10377000030C05D2121943EB0C03001B61EB0C0187
:103780004FEA1154A4EB135CDFF81CE11EEA430F6F
:1037900018BF9EEA445F00F0748021EA045123EAD6
:1037A0000E0343F48013DCF1200E32D322FA0CFE18
:1037B00010EB0E0023FA0CFE41EB0E01CCF1200EB3
:1037C00003FA0EFE10EB0E00CCF1200E51F10001B9
:1037D000B1F5801F32D201EB045112FA0EF2BDE8AE
:1037E000104058BF7047401C38BF5FEA420218BF04
:1037F0007047002814BF20F0010041F100014FEA9A
:10380000410313F5001F38BF7047A1F1C04100F01C
:1038100007BB012A43EB0302ACF1200CDCF11F0EC5
:1038200032BF4FF0000E23FA0CF310EB030041EB14
:103830000451B4EB115FD0D0A1EB045101F580111C
:10384000490801EB04515FEA30000ED350F100004B
:1038500038BF12FA0EFE08D1BDE81040C9E7401C7F
:1038600038BF5FEA4202CAD1C3E7BDE810404FEA61
:10387000410313F5001F38BF7047A1F1C04100F0AC
:10388000CFBA9EEA445F08D011EA5E0FBDE810404F
:1038900004BF01F0004100207047BDE8104070B542
:1038A00000F070FA64FBBE3E0000E0FF02494FF0FA
:1038B000000000F070BE00BF0000F87F491058BF44
:1038C000C1F140415B1058BFC3F140438B42EFF35D
:1038D000008070472DE9C04130B4DFF8A4C23CEA53
:1038E000111418BF3CEA131400F0ED801CEA111407
:1038F00081EA030544EAD57418BF1CEA131500F0E9
:10390000C880A4EB050404F17F7404F500344FF083
:10391000004545EAC12145EAC32341EA505143EA43
:1039200052534FEAC0204FEAC222994208BF904248
:1039300000F09D804FEA13650FF24416765D4FEA62
:10394000134506FB05F7C7F1807706FB07F74FEA3B
:10395000D737A7FB03687642A7FB06CEC8F58038A9
:1039600038BFA8F1010807FB08E6A6FB028C4FF060
:10397000000EE6FB03CEDCF1000CCEF1004E38BFAA
:10398000AEF1010EA6FB0C584FF00007E6FB0E87C8
:10399000A1FB08C6A0FB07CE16EB0E064FF00005F4
:1039A00045F10005E1FB076515F1E04E7EBFA4F58A
:1039B00080345FEA46066D4116F1800745F1000547
:1039C0004FEA172747EA05674FEA15254FEA0666CB
:1039D000A6F1DE46B6F1805F20D9384605EBC4710A
:1039E00024F0010C01EB0C11BCF1FE6F02D8F0BC0D
:1039F000BDE8008124425CBF01F5801E9EEAC47FC1
:103A000002D4F0BCBDE80081244200F13980A1F16C
:103A1000C041F0BCBDE8004100F002BA4FEAD0203E
:103A200040EA41504FEAD1214FEAD22242EA4352C2
:103A30004FEAD323A7FB028607FB036605FB02665A
:103A40001EEA0E0F58BFA6EB0056B6EB00564FEA23
:103A5000520E4EEAC37E18EB0E0E56EB530EBCD53B
:103A600018EB02085E417F1C55F10005B5E74FF4E5
:103A700080154FF000074FF000064FF00008ACE74C
:103A800001F1C04101F000414FF00000F0BCBDE881
:103A900000810CEA131511EA0C1F00D00CE013EAA8
:103AA0000C1F00F026804FF0000081EA030101F0B6
:103AB0000041F0BCBDE80081F0BCBDE8004181EAF6
:103AC000030100F0ADB9F0BCBDE8004170B500F0F5
:103AD00059F900BF097EFC3E00F007B84FF0000026
:103AE00081EA030101F00041704781EA030100F01F
:103AF00097B9F0BCBDE8004122494FF00000704783
:103B0000FFFDFBF9F7F5F4F2F0EEEDEBE9E8E6E4A2
:103B1000E3E1E0DEDDDBDAD8D7D5D4D3D1D0CFCD29
:103B2000CCCBCAC8C7C6C5C4C2C1C0BFBEBDBCBB62
:103B3000BAB9B8B7B6B5B4B3B2B1B0AFAEADACAB5D
:103B4000AAA9A8A8A7A6A5A4A3A3A2A1A09F9F9E37
:103B50009D9C9C9B9A9999989797969595949393E9
:103B6000929191908F8F8E8E8D8C8C8B8B8A898980
:103B70008888878786858584848383828281818003
:103B80000000FF070000F87F51EA030C17D41CF572
:103B9000801F58BFBCF5801F00F10680994218BFF6
:103BA000704708BF9042704707D711F5801F58BF74
:103BB00013F5801F19D499427047894270471CF54C
:103BC000801F08D5BCF5801FF7D58B4218BF704702
:103BD00008BF824270474FF4001C1CEB410F38BFF6
:103BE0001CEB430F01D28B42704770B500F0CAF84E
:103BF000922449004FF000514FF08053FFF75EBE12
:103C000010F0004248BF4042B0FA80F310FA03F1CE
:103C10000AD0C3F11D0303F5806302EB03524FEAA0
:103C2000415002EBD12170474FF000007047000077
:103C300070B5DFF848C11CEA111E1EBF1CEA13153F
:103C40009EEA0C0F95EA0C0F00F06F8081EA0304E6
:103C50004EEAD47EAE4421EA4C1123EA4C1341F4DF
:103C6000801143F48013AEF17F7EA1FB024CA0FBD8
:103C70000365361955EB0C05A1FB034C4CF1000311
:103C8000A0FB021C16EB0C06654153F10003094230
:103C900018BF46F0010613F4007F0BD14FEA033141
:103CA0004FEA053041EA155140EA165034036FF0EF
:103CB00003020AE04FEAC3214FEAC52041EA555109
:103CC00040EA5650F4026FF0020202EB2E4201EB82
:103CD000025585EACE710AD05FEA440C18BF24F081
:103CE000004450F1000041F1000120EAD47040F29C
:103CF000FE7C624500D270BDA84214BF4FF08044E4
:103D00004FF04044002E08BF0024BEF1806FA8BFD2
:103D1000A1F1C041BDE8704080F2828001F1C04154
:103D200001F000414FF0000070470CEA13159EEAC5
:103D30000C0F18BF95EA0C0F06D081EA030E4FF066
:103D400000000EF0004170BD00F01CF88900013E3B
:103D500000F007B800F009B84FEA430C5FEA5C5C7A
:103D600008D081EA030100F05BB84FEA410C5FEA3A
:103D70005C5CF6D102494FF0000070470000FF077D
:103D80000000F87F0EF1020E2EF0030E5EF8046BB9
:103D9000364205D4012A43EB030515F5001F12D85E
:103DA000012841EB010C1CF5001F0CD80ED14FEA85
:103DB000D17C0CEB4C0C0CF1020C15F5001F08BF6C
:103DC0004CEBD37C04E04FF0080C01E04FEAD37CCD
:103DD0000CEB4C0526FA05F606F00706B6F1040CC6
:103DE00006D20EEB860CBDE870404CF0010C60472B
:103DF000DFE80CF0090B02024FF00041A1F50021B1
:103E00004FF0000070BD19461046012851EB010427
:103E100018BFD4F5001484BF002001F0004170BD2C
:103E20000808A0F500114FEA3101704710B591EA7A
:103E3000030F81F000413FF599AC83F0004300F09F
:103E4000D5B800002DE9F04101F5801CBCF5001F3C
:103E5000C0F2A9804FEA115C21EA0C5141F48011B3
:103E60000CF1FD0C5FEA5C0C0CF5C07C01D340004A
:103E70004941890241EA905187022EA48E0EA45D29
:103E80000A0C04FB04F602FB06F6C6F14046A4FB4E
:103E90000662F60D46EA422606FB06F4A4FB012361
:103EA0005242C3F1404338BF5B1EA6FB02420024CE
:103EB000E6FB0324D20B42EA4446A6FB0623A1FB01
:103EC00002E2A3FB07E4E3FB61426442C2F1404E1D
:103ED00038BFAEF1010EA6FB04234FF00002E6FB53
:103EE0000E32A2FB03463400E2FB6264A1FB06E64D
:103EF000A4FB07E8E4FB61687642C8F1405838BF8C
:103F0000A8F10108A2FB06E4A3FB08E5E2FB685464
:103F1000A1FB05E6A7FB04E8E1FB648618F1200598
:103F200056F10006A80940EA8660B109A8F11B080D
:103F300008F03F08B8F10A0F1CD901EB0C51BDE89D
:103F4000F08100BFFCF5EEE8E2DDD8D3CFCBC7C3EC
:103F5000C0BDB9B6B4B1AEACA9A7A5A3A19F9D9BA6
:103F60009A9896959392908F8D8C8B898887868569
:103F700084838281A0FB006800FB01F208EB420809
:103F8000B8EB872807D5341858EB0104D5D5401C69
:103F900051F10001D1E7341A78EB0104CDD4401E71
:103FA00071F10001C9E75FEA4C0C5FEA9C5C0DD13E
:103FB00005D301F000414FF00000BDE8F081BDE8FD
:103FC000F04170B5FFF7DEFE6DDBFFBEBDE8F041EE
:103FD00001494FF0000070470000F87F10B591EAEA
:103FE000030F48BF83F000433FF5C0AB841A71EB69
:103FF000030C07D28CF0004C121943EB0C03001B8E
:1040000061EB0C014FEA1154A4EB135CDFF8A4E15F
:104010001EEA430F18BF9EEA445F00F0B48021EA15
:10402000045123EA6E035242C3EB6E0338BF5B1E9A
:10403000DCF1200E25D322FA0CFE10EB0E0043FA21
:104040000CFE41EB0E01CCF1200E03FA0EFE10EB3C
:104050000E00CCF1200E51F1000129D401EB0451E6
:1040600012FA0EF2BDE8104058BF7047401C1CBF4A
:10407000B2F1004F704700280CBF491C20F001002E
:10408000704712EB020E43EB030218BF4FF0010E14
:104090004EEA4202ACF1200CDCF11E0E56D943FA76
:1040A0000CFE10EB0E00CCF11E0E51F1FF31D5D5F8
:1040B0000EF1010E12FA0EFE404141EB010101EB3F
:1040C000445C5FEA5C5C10D901EB045110EBDE70DC
:1040D00038BFBEF1004FBDE8104018BF7047002840
:1040E0000CBF491C20F00100704734D24FEAD42C99
:1040F00024F4006411F500111BD0B1FA81F20B3ADF
:10410000A41AA41ED2F12003914030FA03F31943FC
:10411000904001EBCC7101EB0451002CBDE8104044
:10412000A8BF704701F1C04101F000414FF000000D
:104130007047B0FA80F310FA03F102D1BDE81040E5
:104140007047E41A173C4805C90AE2E701EB04513D
:10415000BDE81040704749104FEA300001EB0451B0
:10416000BDE8104002E04FF0000170474A0008BF70
:104170000042F8D0B2F5001F28BF704701F000419F
:104180004FF0000070479EEA445F07D011EA5E0FCF
:10419000BDE8104004BF002100207047BDE810407A
:1041A00070B5FFF7EFFD00BF40DFF63E104683F02D
:1041B000004170470000E0FF43004FEAD30C4FEA94
:1041C0003C0C43401FBF40070CF1605113F0FE4F01
:1041D00070471CF0006F03D10CF0004100207047C5
:1041E0000CF0004343EA507040EACC0010B500F0F8
:1041F0000EF900BF000000924FEA0001FFF710BE69
:104200004FF00041A1F500214FF000007047000081
:1042100090EA010F48BF81F0004100F14A81421A43
:104220003CBF801A89184FEAD052A2EBD1534FF00D
:104230007F4C1CEA410F18BF9CEA026F00F03B80E4
:104240004FF0004C4CEA00204CEA012121FA03FC1B
:1042500010EB0C0C1ED202F1FF325FEA1C2040EB87
:10426000C25038BF70471CF07F0F4FEA400C18BF98
:10427000BCF17F4F38BF7047C3F12003994008BF9E
:1042800020F00100BCF17F4F38BF7047A0F1C04063
:1042900000F003B94FEA3C00000A40EBC25028BFCF
:1042A0001CF0FF0F4FEA400CE6D018BFBCF17F4F67
:1042B00038BF7047EAE79CEA026F05D010EA5C0F4E
:1042C00008BF00F00040704710B500F0A0F800BF34
:1042D00064FBBE3E41000B0ED3F19E0208D950F4A0
:1042E00000034FEA032323FA02F048BF404270471D
:1042F00010B500F08CF800BF499224800020704770
:104300006FF0004282EA2000704700004FF47F0CFB
:104310001CEAD0121EBF1CEAD11392EA0C0F93EADA
:104320000C0F00F0478090EA010F48BF42F4807202
:104330004FF0004C4CEA00204CEA012102EB030252
:10434000A0FB0113A2F50002002918BF43F00103EE
:104350005B0028BF4FEA330342EB22425FEA132C93
:104360004CEBC2502EBFBCEB436FB2F57C0F7047D5
:104370004FEA036CBCF1004F08BF20F00100B2F51A
:104380007C0F38BF70470BD582F0FF0212F5803FDB
:10439000C8BF704700F1C040D8BF00F00040704770
:1043A00000F5000C5FEA4C0C48BF7047B0F1C0400C
:1043B00000F073B80CEAD11390EA010F48BF42F441
:1043C0008072624538BF634504D280EA010000F084
:1043D0000040704710B500F01AF800BF8900013E98
:1043E00000F007B800F009B85FEA410C5FEA1C6C06
:1043F00008D080EA010000F050B85FEA400C5FEAA4
:104400001C6CF6D14FF00040A0F5800070470EF113
:10441000020E2EF0030E5EF8044B244204D44FEA41
:104420004102B2F17F4F11D84FEA4003B3F17F4F01
:104430000CD80ED14FEAD07C0CEB4C0C0CF1020CDA
:10444000B2F17F4F08BF4CEBD17C04E04FF0080C79
:1044500001E04FEAD17C0CEB4C0324FA03F404F0A6
:104460000704B4F1040C06D20EEB840CBDE8104036
:104470004CF0010C6047DFE80CF0070802024FF037
:104480000040A0F5800010BD0846420018BFD2F1E0
:10449000807288BF00F0004010BDFF2141EAD0507B
:1044A000C005704790EA010F48BF81F000413FF519
:1044B000B6AE421A04D882F00042A0EB02001144CA
:1044C0004FEAD052A2EBD1534FF07F4C1CEA410F80
:1044D00018BF9CEA026F4AD04FF0004C4CEA002013
:1044E0004CEA012121FA03FCB0EB0C0C0FD412F0C2
:1044F000FE0F36D05FEA4C001DD5001240EBC250D3
:1045000038BF70471CF03F0F18BF70470BE05FEAE1
:104510001C20A2F1010240EBC25038BF70471CF0D2
:104520007F0F18BF7047C3F12003994014BF401E8E
:1045300020F0010070474FEA1223800808BF70473F
:10454000B0FA80FCA2EB0C02CCF1280C60FA0CF063
:1045500093EA122F04BF00EBC25070474FEAC370BA
:104560007047130A5FEADC1008BF7047F6E79CEA61
:10457000026F04D010EA5C0F08BF0020704710B52E
:10458000FFF745FF40DFF63E81F000407047FCF743
:104590009BBBFCF7CFBC0CF00F03092B08BF082016
:1045A00000F059800A2B0BD0082B18BF704708BFAA
:1045B0001CF0400F0AD04FF000004FF00001704790
:1045C0001CF0400F18BF4FF0004070471CF0100F58
:1045D00008D000F07F4220F0704342EAD3014FEA56
:1045E0004370704700F0604021F07F4242EA0002D1
:1045F00001F07F4040EA727070474FF0FF0C4CF4BE
:10460000E06C1CEA11531CBF9CEA030C9445C2BF2A
:10461000DA4201EB02517047002B0DD0BCF1000FC4
:104620000FD001F00041002AA4BF41F0E04141F069
:104630007F614FF00000704701F000414FF0000033
:10464000704750EA01334FF09B0C18BF4CF0806C60
:104650007FF42CA970471CF4801F11D01CF4E02FAC
:1046600003D06FEACC31490070474FF04050EFF370
:10467000008222F0704242EA000282F30088704712
:104680004FF0000070470000000000000000000034
:104690003031323334353637383941424344454678
:1046A0004030580030313233343536373839616272
:1046B0006364656640307800040000080000000074
:1046C00000000002000100001000000000000000D7
:1046D0004FBB610567ACDD3F182D4454FB21E93F1A
:1046E0009BF681D20B73EF3F182D4454FB21F93F09
:1046F000E2652F227F2B7A3C075C143326A6813C8F
:10470000BDCBF07A8807703C075C143326A6913C39
:10471000C4EB98999999C9BF711623FEC671BCBFA5
:104720006D9A74AFF2B0B3BF9AFDDE522DDEADBF0D
:104730002F6C6A2C44B4A2BF0D5555555555D53F25
:10474000FF8300922449C23F6E204CC5CD45B73F40
:10475000513DD0A0660DB13FEB0D76244B7BA93FB8
:1047600011DA22E33AAD903F0000000000000000A3
:1047700030313233343536373839616263646566D7
:10478000787000303132333435363738394142436E
:10479000444546585000000002400000000000A0C0
:1047A0000000000005400000000000C800000000FC
:1047B0000C4000000000409C000000001940000078
:1047C0000020BCBE0000000034400000BFC91B8EAA
:1047D00000000004B5400000504BCFD06607E2CF88
:1047E000010000006C4100003E8251AADFEEA734B8
:1047F00001000000D9420000DCB5A0E23A301F976A
:10480000FFFFFFFFB4450000FD25A0C8E9A3C14F8D
:10481000FFFFFFFFFF3F00000000008000000000DE
:10482000FF3F000000000080000000000D0A00496A
:104830006E697469616C697A65642100583A00593F
:104840003A00416E676C65733A2058203D0020594C
:104850003D00207A3D00434F4C4F523A4752454568
:104860004E0025302E32660053797374656D004D0D
:104870005055363035302044657465637465642165
:10488000204465766963652049443A203078004DBC
:10489000505536303530204E6F7420446574656352
:1048A00074656421204465766963652049443A2033
:1048B00030780000004A00000000002004000000E2
:1048C000E8020000044A000008000020D0040000B4
:1048D000080300001C00000043000000F8FFFFFF79
:1048E0000C0000000E0000000F0000002E00000071
:1048F0001001000043000000F8FFFFFF00404040AF
:1049000040404040404041414141414040404040A2
:10491000404040404040404040404040400502024E
:10492000020202020202020202020202022020200D
:104930002020202020202002020202020202909069
:104940009090909010101010101010101010101067
:1049500010101010101010100202020202028888BB
:1049600088888888080808080808080808080808C7
:1049700008080808080808080202020240000000AF
:104980000000000000000000000000000000000027
:104990000000000000000000000000000000000017
:1049A0000000000000000000000000000000000007
:1049B00000000000000000000000000000000000F7
:1049C00000000000000000000000000000000000E7
:1049D00000000000000000000000000000000000D7
:1049E00000000000000000000000000000000000C7
:1049F00000000000000000000000000000000000B7
:044A000001010100AF
:040000050000026D88
:00000001FF
